:020000040000fa
:080000000002040000000000f2
:020000040000fa
:04000800c80200002a
:020000040000fa
:04000c00c802000026
:020000040000fa
:04001000c802000022
:020000040000fa
:04001400c80200001e
:020000040000fa
:04001800c80200001a
:020000040000fa
:04001c00c802000016
:020000040000fa
:04002000c802000012
:020000040000fa
:04002400c80200000e
:020000040000fa
:04002800c80200000a
:020000040000fa
:04002c00c802000006
:020000040000fa
:04003000c802000002
:020000040000fa
:04003400c8020000fe
:020000040000fa
:04003800c8020000fa
:020000040000fa
:04003c00c8020000f6
:020000040000fa
:04004000c8020000f2
:020000040000fa
:04004400c8020000ee
:020000040000fa
:04004800c8020000ea
:020000040000fa
:04004c00c8020000e6
:020000040000fa
:04005000c8020000e2
:020000040000fa
:04005400c8020000de
:020000040000fa
:04005800c8020000da
:020000040000fa
:04005c00c8020000d6
:020000040000fa
:04006000c8020000d2
:020000040000fa
:04006400c8020000ce
:020000040000fa
:04006800c8020000ca
:020000040000fa
:04006c00c8020000c6
:020000040000fa
:04007000c8020000c2
:020000040000fa
:04007400c8020000be
:020000040000fa
:04007800c8020000ba
:020000040000fa
:04007c00c8020000b6
:020000040000fa
:04008000c8020000b2
:020000040000fa
:04008400c8020000ae
:020000040000fa
:04008800c8020000aa
:020000040000fa
:04008c00c8020000a6
:020000040000fa
:04009000c8020000a2
:020000040000fa
:04009400c80200009e
:020000040000fa
:04009800c80200009a
:020000040000fa
:04009c00c802000096
:020000040000fa
:0400a000c802000092
:020000040000fa
:0400a400c80200008e
:020000040000fa
:0400a800c80200008a
:020000040000fa
:0400ac00c802000086
:020000040000fa
:0400b000c802000082
:020000040000fa
:0400b400c80200007e
:020000040000fa
:0400b800c80200007a
:020000040000fa
:0400bc00c802000076
:020000040000fa
:0400c000c802000072
:020000040000fa
:0400c400c80200006e
:020000040000fa
:0400c800c80200006a
:020000040000fa
:0400cc00c802000066
:020000040000fa
:0400d000c802000062
:020000040000fa
:0400d400c80200005e
:020000040000fa
:0400d800c80200005a
:020000040000fa
:0400dc00c802000056
:020000040000fa
:0400e000c802000052
:020000040000fa
:0400e400c80200004e
:020000040000fa
:0400e800c80200004a
:020000040000fa
:0400ec00c802000046
:020000040000fa
:0400f000c802000042
:020000040000fa
:0400f400c80200003e
:020000040000fa
:0400f800c80200003a
:020000040000fa
:0400fc00c802000036
:020000040000fa
:04010000c802000031
:020000040000fa
:04010400c80200002d
:020000040000fa
:04010800c802000029
:020000040000fa
:04010c00c802000025
:020000040000fa
:04011000c802000021
:020000040000fa
:04011400c80200001d
:020000040000fa
:04011800c802000019
:020000040000fa
:04011c00c802000015
:020000040000fa
:04012000c802000011
:020000040000fa
:04012400c80200000d
:020000040000fa
:04012800c802000009
:020000040000fa
:04012c00c802000005
:020000040000fa
:04013000c802000001
:020000040000fa
:04013400c8020000fd
:020000040000fa
:04013800c8020000f9
:020000040000fa
:04013c00c8020000f5
:020000040000fa
:04014000c8020000f1
:020000040000fa
:04014400c8020000ed
:020000040000fa
:04014800c8020000e9
:020000040000fa
:04020800c802000028
:020000040000fa
:04020c00c802000024
:020000040000fa
:04021000c802000020
:020000040000fa
:04021400c80200001c
:020000040000fa
:04021800c802000018
:020000040000fa
:04021c00c802000014
:020000040000fa
:04022000c802000010
:020000040000fa
:04022400c80200000c
:020000040000fa
:04022800c802000008
:020000040000fa
:04022c00c802000004
:020000040000fa
:04023000c802000000
:020000040000fa
:04023400c8020000fc
:020000040000fa
:04023800c8020000f8
:020000040000fa
:04023c00c8020000f4
:020000040000fa
:04024000c8020000f0
:020000040000fa
:04024400c8020000ec
:020000040000fa
:04024800c8020000e8
:020000040000fa
:04024c00c8020000e4
:020000040000fa
:04025000c8020000e0
:020000040000fa
:04025400c8020000dc
:020000040000fa
:04025800c8020000d8
:020000040000fa
:04025c00c8020000d4
:020000040000fa
:04026000c8020000d0
:020000040000fa
:04026400c8020000cc
:020000040000fa
:04026800c8020000c8
:020000040000fa
:04026c00c8020000c4
:020000040000fa
:04027000c8020000c0
:020000040000fa
:04027400c8020000bc
:020000040000fa
:04027800c8020000b8
:020000040000fa
:04027c00c8020000b4
:020000040000fa
:04028000c8020000b0
:020000040000fa
:04028400c8020000ac
:020000040000fa
:04028800c8020000a8
:020000040000fa
:04028c00c8020000a4
:020000040000fa
:04029000c8020000a0
:020000040000fa
:04029400c80200009c
:020000040000fa
:04029800c802000098
:020000040000fa
:04029c00c802000094
:020000040000fa
:0402a000c802000090
:020000040000fa
:0402a400c80200008c
:020000040000fa
:0402a800c802000088
:020000040000fa
:0402ac00c802000084
:020000040000fa
:0402b000c802000080
:020000040000fa
:0402b400c80200007c
:020000040000fa
:0402b800c802000078
:020000040000fa
:0402bc00c802000074
:020000040000fa
:0402c000c802000070
:020000040000fa
:0402c400c80200006c
:020000040000fa
:0402c800c802000068
:020000040000fa
:0402cc00c802000064
:020000040000fa
:0402d000c802000060
:020000040000fa
:0402d400c80200005c
:020000040000fa
:0402d800c802000058
:020000040000fa
:0402dc00c802000054
:020000040000fa
:0402e000c802000050
:020000040000fa
:0402e400c80200004c
:020000040000fa
:0402e800c802000048
:020000040000fa
:0402ec00c802000044
:020000040000fa
:0402f000c802000040
:020000040000fa
:0402f400c80200003c
:020000040000fa
:0402f800c802000038
:020000040000fa
:0402fc00c802000034
:020000040000fa
:04030000c80200002f
:020000040000fa
:04030400c80200002b
:020000040000fa
:04030800c802000027
:020000040000fa
:04030c00c802000023
:020000040000fa
:04031000c80200001f
:020000040000fa
:04031400c80200001b
:020000040000fa
:04031800c802000017
:020000040000fa
:04031c00c802000013
:020000040000fa
:04032000c80200000f
:020000040000fa
:04032400c80200000b
:020000040000fa
:04032800c802000007
:020000040000fa
:04032c00c802000003
:020000040000fa
:04033000c8020000ff
:020000040000fa
:04033400c8020000fb
:020000040000fa
:04033800c8020000f7
:020000040000fa
:04033c00c8020000f3
:020000040000fa
:04034000c8020000ef
:020000040000fa
:04034400c8020000eb
:020000040000fa
:04034800c8020000e7
:020000040000fa
:100400006f8f20000e7f22000e0188000000000088
:10041000000020000000e000020032000001200087
:1004200020028800140007005b0007000000e000c5
:1004300003003a0020c32000010020000200370022
:100440000000200001002000810f70000100320038
:1004500014000700000020000000e000020032004d
:10046000000002000000000008030200000000007d
:100470000040da000000fe004440a9000000200017
:100480000000e0000300320000002000a00188000e
:100490004440a800000006008a1f78008b1f7800e7
:1004a0000000060091018800800478000000eb0045
:1004b0001a003700e284440032a0b4009905ba0063
:1004c000e284440032a0b4009906ba00e2844400f9
:1004d00032a0b4000006eb00476fde00fd07b2005b
:1004e000636ce10003003a00ebff07000000eb0043
:1004f0000a003700606ce10004003a00005deb0088
:100500008b05e900fdff3e00040037006168e10053
:10051000010032000086eb000b00070019c7ba008b
:100520001905ba000e04e00003003a000a00e000da
:10053000e0ff3a0000000600fe07b2009e018800be
:100540008a047800f5ff3700395dba008b05e900b1
:100550000c003200295dba008b05e900080032006a
:100560000c00e00003003a00e284440032a0b40032
:10057000f5ff370019ddba008b05e900faff3a00f4
:100580008904e800e184440032a0b40000000600c1
:0c0590000040da000000fe000000050042
:020000040000fa
:10059c000600fa00213a8000f08f2f0000806000e6
:1005ac00203a88008202200061c0b3000e0078005f
:1005bc00330207001e01be00124488002344880049
:1005cc00ae019000334488008202200051c0b30079
:1005dc000e0078002a0207001e01be00424488006b
:1005ec0053448800ae01900063448800f703070071
:1005fc00e08820004b030700000000000080fa0098
:10060c00000006008801fa00e1ff070076004700b1
:10061c00000278008041eb000041eb008040eb00d1
:10062c000040eb00a30307007600470000027800af
:10063c0080c1eb0000c1eb0080c0eb0010c0b30028
:10064c009c030700760047000002780080c1eb0095
:10065c000041eb008040eb0020c0b3009503070085
:10066c0040002000000f7800090037001e007800c1
:10067c0000407800f6004700010278008041eb0052
:10068c000041eb008040eb008a0307001e0fe800de
:10069c001e007800ef0f5000f4ff340060052000be
:1006ac000e004000000278008041eb000041eb009e
:1006bc008040eb000040eb007e030700600520004b
:1006cc000e0040000002780080c1eb0000c1eb007e
:1006dc0080c0eb0010c0b30076030700600520005b
:1006ec000e004000000278008041eb000041eb005e
:1006fc0080c0eb0020c0b3006e0307004000200058
:10070c00000f78000a0037001e00780000407800c7
:10071c00610520008e804000010278008041eb00d2
:10072c000041eb008040eb00620307001e0fe80065
:10073c001e007800ef0f5000f3ff3400600920001a
:10074c000e004000000278008041eb000041eb00fd
:10075c008040eb000040eb005603070060092000ce
:10076c000e0040000002780080c1eb0000c1eb00dd
:10077c0080c0eb0010c0b3004e03070060092000de
:10078c000e004000000278008041eb0000c1eb003d
:10079c0080c0eb0020c0b3004603070040002000df
:1007ac00000f78000a0037001e0078000040780027
:1007bc00610920008e804000010278008041eb002e
:1007cc000041eb008040eb003a0307001e0fe800ed
:1007dc001e007800ef0f5000f3ff3400600d200076
:1007ec000e004000000278008041eb000041eb005d
:1007fc008040eb000040eb002e030700600d200052
:10080c000e004000000278008041eb000041eb003c
:10081c0080c0eb0010c0b30026030700600d200061
:10082c000e004000000278008041eb00a2cab30029
:10083c008040eb0020c0b3001e030700600d2000b9
:10084c000e0040000002780063ceb30082c7b300f4
:10085c0021c2b30030c0b30016030700600d2000a6
:10086c000e0040000002780080c1eb0000c1eb00dc
:10087c0080c0eb0040c0b3000e030700600d2000e9
:10088c000e0040000002780003c5b30002cfb30095
:10089c0081c7b30050c0b30006030700600d2000f1
:1008ac000e0040000002780080c1eb0042c1b30092
:1008bc0041c6b30060c0b300fe020700600d20000b
:1008cc000e0040000002780063c9b30022c3b300dd
:1008dc00a1c0b30070c0b300f6020700600d200089
:1008ec000e00400000027800a3cab3000041eb00e8
:1008fc00a1cab30080c0b300ee020700600d200057
:10090c000e00400000027800a3cab300a2cab300d4
:10091c008040eb0090c0b300e6020700a00020006e
:10092c00000f78000a0037001e00780000407800a5
:10093c00610d20008e804000010278008041eb00a8
:10094c000041eb008040eb00da0207001e0fe800cc
:10095c001e007800ef0f5000f3ff34000000eb0096
:10096c00000f7800430037001e007800ea0f50009b
:10097c0036003c009e00780030002000000178001a
:10098c00110009008200d8008000fd000000e0008a
:10099c000a003a001e007800004078006111200027
:1009ac008e804000010278008041eb00a2cab300a7
:1009bc008040eb00bf0207002d0037009e0078003e
:1009cc003000200080017800110009008300d8005d
:1009dc008000fd00e10f50000a003a001e00780074
:1009ec0000407800611120008e80400001027800e8
:1009fc00a3cab3000041eb008040eb00ad0207003e
:100a0c001b0037009e0078003000200000017800a9
:100a1c00110009008200d8008000fd00e20f500098
:100a2c0013003a001e00780000407800611120008d
:100a3c008e804000010278008041eb000041eb0009
:100a4c00a1cab3009b020700090037001e00780002
:100a5c0000407800611120008e8040000102780077
:100a6c008041eb000041eb008040eb00910207005d
:100a7c001e0fe8001e007800ef0f5000baff340084
:100a8c0081c2b300808820001801070081c2b30026
:100a9c0020882000150107000000eb0030079800ab
:100aac000000eb00400798000000eb005007980096
:100abc000000eb0060079800e01720000e004000db
:100acc00ec0207001e80910001ed2f008080400099
:100adc00300d200080017800110009008300d8003f
:100aec00000f98002e809100e1eb2f0080804000d9
:100afc00b007200000017800110009008200d80026
:100b0c00100f9800fe3891006e009000808f5000fe
:100b1c000b0032007e3891000000e000080032002b
:100b2c004e0090000000e800400798004e00900036
:100b3c00e20f5000020034000000eb004007980068
:100b4c008e8091005e009000808f50000b00320070
:100b5c000e8091000000e000080032003e00900082
:100b6c000000e800300798003e009000e40f5000b1
:100b7c00020034000000eb00300798008e819100d9
:100b8c0053079800fe389100610798003e009000d2
:100b9c000000e00003003a007600470010079800c0
:100bac001b0037003e009000e10f500004003a009b
:100bbc00600520000e00400010079800140037005c
:100bcc003e009000e20f500004003a006009200043
:100bdc000e004000100798000d0037003e009000fa
:100bec00e30f500004003a00600d20000e0040009e
:100bfc0010079800060037003e009000e40f5000ec
:100c0c0003003a00601120000e004000100798000d
:100c1c004e0090000000e00003003a00a08020008d
:100c2c0020079800080037004e009000e10f50009c
:100c3c0003003a00208320002007980002003700b0
:100c4c00a0852000200798007002200070079800f3
:100c5c0039003700fe0090001e0890000080500004
:100c6c00200f98002e0890000000e0000e003500c8
:100c7c00ae089000800020000001780011000900ef
:100c8c008200d800308799007e01900080002000ff
:100c9c0080017800110009000301d800be8091008a
:100cac00808f500007003200611520008e804000bc
:100cbc007e009000008040008040eb0001487800ee
:100ccc001a0037008e08900080ff2f000088b900b2
:100cdc0000007800ae08900000804000200f9800c3
:100cec002e0890000000e00007003d006115200078
:100cfc008e8040007e009000008040008040eb0021
:100d0c0001487800090037002e089000ae009000d2
:100d1c000080400090407800621520000e014100d8
:100d2c007e00900000004100014878007e00900099
:100d3c000000e900700798007e0090000000e000c1
:100d4c00c4ff3d00601520000e004000000178003b
:100d5c009e00900020882000fd00070070022000fb
:100d6c007007980039003700fe0090001e089000b4
:100d7c0000805000200f98002e0890000000e0002a
:100d8c000e003500ae0890008000200000017800b5
:100d9c00110009008200d800308799007e01900074
:100dac008000200080017800110009000301d800a8
:100dbc00be809100808f500007003200611520002a
:100dcc008e8040007e009000008040008040eb0050
:100ddc00014878001a0037008e08900080ff2f0021
:100dec000088b90000007800ae0890000080400038
:100dfc00200f98002e0890000000e00007003d0036
:100e0c00611520008e8040007e0090000080400024
:100e1c008040eb0001487800090037002e08900054
:100e2c00ae009000008040009040780062152000d9
:100e3c000e0141007e009000000041000148780046
:100e4c007e0090000000e900700798007e00900082
:100e5c000000e000c4ff3d00601520000e004000c3
:100e6c00000178009e00900080882000b8000700e8
:100e7c0000402d0001032000aa0207000eff3700de
:100e8c000a00fa006147980042079800ee40900073
:100e9c00014f7800ce0090001107980080c0eb0045
:100eac004147980062198000c1e3200082807000e5
:100ebc0061198800ee4090008100fb0012002000b8
:100ecc008110dd000181ea00411680008100610083
:100edc00411688003e1878002e107800ae00900065
:100eec00210098000080fa00000006000400fa00bf
:100efc00000f7800214798002e4090000040e80039
:100f0c0020479800ae4090001e00780041409800a9
:100f1c000080fa00000006000400fa00000f7800c0
:100f2c0011079800601688000800090000000000f6
:100f3c00611688000080fa00000006000400fa0028
:100f4c00000f780011079800601688000100090056
:100f5c0000000000611688000080fa000000060006
:100f6c001400fa00000f9800110f98000e08900062
:100f7c00104078000000fb00110020000008dd008c
:100f8c0020079800511680002e0090000100700080
:100f9c00300798002e0090008080ea0050168000e8
:100fac0000806000400798000e08900090009000b0
:100fbc00510798000000eb00100798005e00370006
:100fcc00ff3ffc001e0090006300b9000000780099
:100fdc009e0890000080400090407800414f98009f
:100fec0070002000000f7800100037004e48900071
:100ffc008080fb001e0078000088de00610060002d
:10100c00004078000004e00004003200ce009000a4
:10101c003e009000c0ff070003003700ce00900098
:10102c003e009000c5ff07001e0fe9001e0078006f
:10103c000000e000edff3d001e0090006300b900d1
:10104c00000078000000e8009e089000008040003e
:10105c0090407800514f980070002000000f7800ed
:10106c00100037005e4890008080fb001e00780066
:10107c000088de0061006000004078000004e000a1
:10108c0004003200ce0090003e009000a2ff07004a
:10109c0003003700ce0090003e009000a7ff070031
:1010ac001e0fe9001e0078000000e000edff3d007f
:1010bc001e0090006300b900000078000080e8007a
:1010cc009e0890000080400090407800614f98008e
:1010dc0070002000000f7800100037006e48900060
:1010ec008080fb001e0078000088de00610060003c
:1010fc00004078000004e00004003200ce009000b4
:10110c003e00900084ff070003003700ce009000e3
:10111c003e00900089ff07001e0fe9001e007800ba
:10112c000000e000edff3d000000fc001e00900000
:10113c000000e800100798009e0090005e009000f0
:10114c00808f50009eff35000080fa0000000600e2
:10115c001400fa00889fbe0070079800010f9800d9
:10116c00120f98000f0478000f00780080047800ac
:10117c007e00900090009000310798007e00900057
:10118c0040419000024f98003e0090006300b9006f
:10119c00000078008000e900510798000000e8008a
:1011ac000000e8000000d100800040000f00780033
:1011bc00818747000000e8000000d10000004000db
:1011cc00600798000000eb00000f78004500370026
:1011dc001e0078009e0890000080400010407800af
:1011ec008e089000df000700204798001e00780052
:1011fc009e08900000804000104078008e089000ff
:10120c00cc000700304798001e0078009e08900024
:10121c0000804000104078008e089000e00007002d
:10122c00404798000e4890000004e000180032007f
:10123c003e4090008080fb000e4890000000fb00b8
:10124c000088b900000078004880de003047980024
:10125c002e4090008080fb000e4890000000fb00a8
:10126c000088b900000078004880de002047980014
:10127c004e4090008080fb000e4890000000fb0068
:10128c000088b900000078004880de0040479800d4
:10129c001e0078006300b90000007800ee0090009a
:1012ac002e419000827078001e0078006300b90017
:1012bc00000078000000e800ee0090003e41900035
:1012cc00827078001e0078006300b900000078007e
:1012dc000080e800ee0090004e4190008270780093
:1012ec001e0fe8003e0090009e007800808f50009a
:1012fc00b7ff35006e009000800078007e009000f3
:10130c0017ff0700000a20000100200085010700dc
:10131c0089077800880778004f04be000080fa0027
:10132c00000006000200fa00000f78001e02780090
:10133c008041eb000041eb008040eb000040eb00f3
:10134c005c0007001e027800a3cab3000041eb004a
:10135c008040eb0010c0b300560007001e0278005e
:10136c008041eb00a2cab3008040eb0020c0b30068
:10137c00500007001e027800a3cab300a2cab30033
:10138c008040eb0030c0b3004a0007001e0278001a
:10139c008041eb000041eb00a1cab30040c0b30098
:1013ac00440007001e027800a3cab3000041eb0002
:1013bc00a1cab30050c0b3003e0007001e02780063
:1013cc008041eb0052c5b300a1cab30060c0b300aa
:1013dc00380007001e027800a3cab300a2cab300eb
:1013ec00a1cab30070c0b300320007001e0278001f
:1013fc0053c5b30052c5b30051c5b30080c0b30090
:10140c002c0007001e027800a3cab30052c5b3001b
:10141c0051c5b30090c0b300260007001e0278002f
:10142c0053c5b30000c1eb0051c5b300a0c0b3005d
:10143c00200007001e02780080c1eb0000c1eb0009
:10144c0051c5b300b0c0b3001a0007001e027800eb
:10145c0053c5b30052c5b30080c0eb00c0c0b3008d
:10146c00140007001e02780080c1eb0052c5b300c7
:10147c0080c0eb00d0c0b3000e0007001e02780045
:10148c0053c5b30000c1eb0080c0eb00e0c0b3005b
:10149c00080007001e02780080c1eb0000c1eb00c1
:1014ac0080c0eb00f0c0b300020007000080fa001f
:1014bc00000006000600fa00004f78001147980063
:1014cc002247980033479800240798001e80fb00a1
:1014dc004200dd00ae009000008340001e409000f2
:1014ec000080fb008000eb00c001dd00020020004a
:1014fc002e4090000082fb008002eb004828dd00ab
:10150c00c820de00810070004820dd000001710061
:10151c00818171003e4090000080fb008000eb0058
:10152c000000710081807100008bbe000080fa0009
:10153c00000006000400fa00004f78001107980024
:10154c001e80fb004200dd009e00900000804000e9
:10155c001000be004008de00004078000080fa0059
:10156c00000006000400fa00004f780011079800f4
:10157c001e80fb004200dd009e00900000804000b9
:10158c001000be004809dd004800de0000007100bc
:10159c00c808de00004078000080fa000000060059
:1015ac000400fa00004f7800110798001e80fb0021
:1015bc004200dd009e009000008040001000be0044
:1015cc00004078000080fa00000006000000fa00dd
:1015dc00c8e2a800c902a8002c03a9002c23a9006a
:1015ec00c002a800c022a800c902a800c942a800d5
:1015fc001221ef0040062000700888000a21ef003d
:10160c002023ef002043a80001198000f0f12f00e7
:10161c00008060000060a000001988002223ef0009
:10162c002343a8001119800030fc2f0000806000bb
:10163c000020a000101988002423ef0010c0b30074
:10164c0024e3b70021198000f00f2e008080600089
:10165c000030200001007000201988003023ef00ba
:10166c003003a8003023a80021e3a8000080fa0072
:10167c00000006001000fa00881f780000047800b3
:10168c000000eb00000f78000000eb001007980042
:10169c000000eb00200798000000eb0030079800da
:1016ac0051168000000820000080600000f0a700a8
:1016bc000000ea000000e9004f00de00400798003f
:1016cc0051168000001020000080600000f0a70080
:1016dc000000ea000000e9004f00de00500798000f
:1016ec002a0037005116800000082000008060009e
:1016fc0000f0a7000000ea000000e9004f00de0047
:10170c00ce009000810f50000d003a005116800061
:10171c00001020000080600000f0a7000000ea002c
:10172c000000e9004f00de00de009000810f500049
:10173c0003003a003e0090000000e80030079800db
:10174c0051168000000820000080600000f0a70007
:10175c000000ea000000e9004f00de00400798009e
:10176c0051168000001020000080600000f0a700df
:10177c000000ea000000e9004f00de00500798006e
:10178c00000a200001002000660007003e009000c7
:10179c00e30f5000d3ff34000000eb00000f780083
:1017ac001400370085a0a90013e1a8000000000078
:1017bc002104800000002200008060000000e00096
:1017cc00fbff320013e1a9000a21ef0085a0a9005c
:1017dc009e009000001880000080400010079800c8
:1017ec00ae00900010188000008040002007980088
:1017fc001e0fe8001e007800e40f5000e9ff3400d3
:10180c009e0090005000200000017800110009009b
:10181c008200d80060079800ae00900050002000b5
:10182c0000027800110009008400d80070079800ad
:10183c004e029000de0290006e039000fe039000ba
:10184c00049cbe000694be00080078004f0478008b
:08185c000080fa000000060004
:020000040000fa
:1018640000080000820000000200000004020100e1
:101874000f0f00000102030004000200000000003a
:10188400000000000201020000000000000000004f
:101894000200000000000000000000000000000042
:1018a4000000000000000000000000000000020032
:1018b4000202020000000000000201000102000018
:1018c400000000000202020002000000000000000c
:1018d4000000000000000000000000000000000004
:1018e40000000000000000000000000000000100f3
:1018f40001010100010101000102020002020200d3
:1019040002020200030303000303030003030400b1
:10191400040404000404040004000000820800001d
:0c19240074000000000000000000000043
:020000040000fa
:10193000f03fb1000180b10006003500ee03090060
:1019400000000000403fb1000180b100fbff3d00fe
:101950001000b000203fb0000200350000800900f8
:08196000000000000000060079
:020000040000fa
:020000040001f9
:0457f8000ff90000a5
:020000040000fa
:020000040001f9
:0457fc007f3f0000eb
:00000001FF
