:020000040000fa
:080000000002040000000000f2
:020000040000fa
:04000800c80200002a
:020000040000fa
:04000c00c802000026
:020000040000fa
:04001000c802000022
:020000040000fa
:04001400c80200001e
:020000040000fa
:04001800c80200001a
:020000040000fa
:04001c00c802000016
:020000040000fa
:04002000c802000012
:020000040000fa
:04002400c80200000e
:020000040000fa
:04002800c80200000a
:020000040000fa
:04002c00c802000006
:020000040000fa
:04003000c802000002
:020000040000fa
:04003400c8020000fe
:020000040000fa
:04003800c8020000fa
:020000040000fa
:04003c00c8020000f6
:020000040000fa
:04004000c8020000f2
:020000040000fa
:04004400c8020000ee
:020000040000fa
:04004800c8020000ea
:020000040000fa
:04004c00c8020000e6
:020000040000fa
:04005000c8020000e2
:020000040000fa
:04005400c8020000de
:020000040000fa
:04005800c8020000da
:020000040000fa
:04005c00c8020000d6
:020000040000fa
:04006000c8020000d2
:020000040000fa
:04006400c8020000ce
:020000040000fa
:04006800c8020000ca
:020000040000fa
:04006c00c8020000c6
:020000040000fa
:04007000c8020000c2
:020000040000fa
:04007400c8020000be
:020000040000fa
:04007800c8020000ba
:020000040000fa
:04007c00c8020000b6
:020000040000fa
:04008000c8020000b2
:020000040000fa
:04008400c8020000ae
:020000040000fa
:04008800c8020000aa
:020000040000fa
:04008c00c8020000a6
:020000040000fa
:04009000c8020000a2
:020000040000fa
:04009400c80200009e
:020000040000fa
:04009800c80200009a
:020000040000fa
:04009c00c802000096
:020000040000fa
:0400a000c802000092
:020000040000fa
:0400a400c80200008e
:020000040000fa
:0400a800c80200008a
:020000040000fa
:0400ac00c802000086
:020000040000fa
:0400b000c802000082
:020000040000fa
:0400b400c80200007e
:020000040000fa
:0400b800c80200007a
:020000040000fa
:0400bc00c802000076
:020000040000fa
:0400c000c802000072
:020000040000fa
:0400c400c80200006e
:020000040000fa
:0400c800c80200006a
:020000040000fa
:0400cc00c802000066
:020000040000fa
:0400d000c802000062
:020000040000fa
:0400d400c80200005e
:020000040000fa
:0400d800c80200005a
:020000040000fa
:0400dc00c802000056
:020000040000fa
:0400e000c802000052
:020000040000fa
:0400e400c80200004e
:020000040000fa
:0400e800c80200004a
:020000040000fa
:0400ec00c802000046
:020000040000fa
:0400f000c802000042
:020000040000fa
:0400f400c80200003e
:020000040000fa
:0400f800c80200003a
:020000040000fa
:0400fc00c802000036
:020000040000fa
:04010000c802000031
:020000040000fa
:04010400c80200002d
:020000040000fa
:04010800c802000029
:020000040000fa
:04010c00c802000025
:020000040000fa
:04011000c802000021
:020000040000fa
:04011400c80200001d
:020000040000fa
:04011800c802000019
:020000040000fa
:04011c00c802000015
:020000040000fa
:04012000c802000011
:020000040000fa
:04012400c80200000d
:020000040000fa
:04012800c802000009
:020000040000fa
:04012c00c802000005
:020000040000fa
:04013000c802000001
:020000040000fa
:04013400c8020000fd
:020000040000fa
:04013800c8020000f9
:020000040000fa
:04013c00c8020000f5
:020000040000fa
:04014000c8020000f1
:020000040000fa
:04014400c8020000ed
:020000040000fa
:04014800c8020000e9
:020000040000fa
:04020800c802000028
:020000040000fa
:04020c00c802000024
:020000040000fa
:04021000c802000020
:020000040000fa
:04021400c80200001c
:020000040000fa
:04021800c802000018
:020000040000fa
:04021c00c802000014
:020000040000fa
:04022000c802000010
:020000040000fa
:04022400c80200000c
:020000040000fa
:04022800c802000008
:020000040000fa
:04022c00c802000004
:020000040000fa
:04023000c802000000
:020000040000fa
:04023400c8020000fc
:020000040000fa
:04023800c8020000f8
:020000040000fa
:04023c00c8020000f4
:020000040000fa
:04024000c8020000f0
:020000040000fa
:04024400c8020000ec
:020000040000fa
:04024800c8020000e8
:020000040000fa
:04024c00c8020000e4
:020000040000fa
:04025000c8020000e0
:020000040000fa
:04025400c8020000dc
:020000040000fa
:04025800c8020000d8
:020000040000fa
:04025c00c8020000d4
:020000040000fa
:04026000c8020000d0
:020000040000fa
:04026400c8020000cc
:020000040000fa
:04026800c8020000c8
:020000040000fa
:04026c00c8020000c4
:020000040000fa
:04027000c8020000c0
:020000040000fa
:04027400c8020000bc
:020000040000fa
:04027800c8020000b8
:020000040000fa
:04027c00c8020000b4
:020000040000fa
:04028000c8020000b0
:020000040000fa
:04028400c8020000ac
:020000040000fa
:04028800c8020000a8
:020000040000fa
:04028c00c8020000a4
:020000040000fa
:04029000c8020000a0
:020000040000fa
:04029400c80200009c
:020000040000fa
:04029800c802000098
:020000040000fa
:04029c00c802000094
:020000040000fa
:0402a000c802000090
:020000040000fa
:0402a400c80200008c
:020000040000fa
:0402a800c802000088
:020000040000fa
:0402ac00c802000084
:020000040000fa
:0402b000c802000080
:020000040000fa
:0402b400c80200007c
:020000040000fa
:0402b800c802000078
:020000040000fa
:0402bc00c802000074
:020000040000fa
:0402c000c802000070
:020000040000fa
:0402c400c80200006c
:020000040000fa
:0402c800c802000068
:020000040000fa
:0402cc00c802000064
:020000040000fa
:0402d000c802000060
:020000040000fa
:0402d400c80200005c
:020000040000fa
:0402d800c802000058
:020000040000fa
:0402dc00c802000054
:020000040000fa
:0402e000c802000050
:020000040000fa
:0402e400c80200004c
:020000040000fa
:0402e800c802000048
:020000040000fa
:0402ec00c802000044
:020000040000fa
:0402f000c802000040
:020000040000fa
:0402f400c80200003c
:020000040000fa
:0402f800c802000038
:020000040000fa
:0402fc00c802000034
:020000040000fa
:04030000c80200002f
:020000040000fa
:04030400c80200002b
:020000040000fa
:04030800c802000027
:020000040000fa
:04030c00c802000023
:020000040000fa
:04031000c80200001f
:020000040000fa
:04031400c80200001b
:020000040000fa
:04031800c802000017
:020000040000fa
:04031c00c802000013
:020000040000fa
:04032000c80200000f
:020000040000fa
:04032400c80200000b
:020000040000fa
:04032800c802000007
:020000040000fa
:04032c00c802000003
:020000040000fa
:04033000c8020000ff
:020000040000fa
:04033400c8020000fb
:020000040000fa
:04033800c8020000f7
:020000040000fa
:04033c00c8020000f3
:020000040000fa
:04034000c8020000ef
:020000040000fa
:04034400c8020000eb
:020000040000fa
:04034800c8020000e7
:020000040000fa
:10040000ef8c20000e7f22000e018800000000000b
:10041000000020000000e000020032000001200087
:1004200020028800140007005b0007000000e000c5
:1004300003003a0060902000010020000200370015
:100440000000200001002000810f70000100320038
:1004500014000700000020000000e000020032004d
:1004600000000200000000005a0502000000000029
:100470000040da000000fe004440a9000000200017
:100480000000e0000300320000002000a00188000e
:100490004440a800000006008a1f78008b1f7800e7
:1004a0000000060091018800800478000000eb0045
:1004b0001a003700e284440032a0b4009905ba0063
:1004c000e284440032a0b4009906ba00e2844400f9
:1004d00032a0b4000006eb00476fde00fd07b2005b
:1004e000636ce10003003a00ebff07000000eb0043
:1004f0000a003700606ce10004003a00005deb0088
:100500008b05e900fdff3e00040037006168e10053
:10051000010032000086eb000b00070019c7ba008b
:100520001905ba000e04e00003003a000a00e000da
:10053000e0ff3a0000000600fe07b2009e018800be
:100540008a047800f5ff3700395dba008b05e900b1
:100550000c003200295dba008b05e900080032006a
:100560000c00e00003003a00e284440032a0b40032
:10057000f5ff370019ddba008b05e900faff3a00f4
:100580008904e800e184440032a0b40000000600c1
:0c0590000040da000000fe000000050042
:020000040000fa
:10059c000a00fa006147980042079800ee4090006c
:1005ac00014f7800ce0090001107980080c0eb003e
:1005bc004147980062198000c1e3200082807000de
:1005cc0061198800ee4090008100fb0012002000b1
:1005dc008110dd000181ea0041168000810061007c
:1005ec00411688003e1878002e107800ae0090005e
:1005fc00210098000080fa00000006000400fa00b8
:10060c00000f7800214798002e4090000040e80031
:10061c0020479800ae4090001e00780041409800a2
:10062c000080fa00000006000400fa00000f7800b9
:10063c0011079800601688000800090000000000ef
:10064c00611688000080fa00000006000400fa0021
:10065c00000f78001107980060168800010009004f
:10066c0000000000611688000080fa0000000600ff
:10067c001400fa00000f9800110f98000e0890005b
:10068c00104078000000fb00110020000008dd0085
:10069c0020079800511680002e0090000100700079
:1006ac00300798002e0090008080ea0050168000e1
:1006bc0000806000400798000e08900090009000a9
:1006cc00510798000000eb00100798005e003700ff
:1006dc00ff3ffc001e0090006300b9000000780092
:1006ec009e0890000080400090407800414f980098
:1006fc0070002000000f7800100037004e4890006a
:10070c008080fb001e0078000088de006100600025
:10071c00004078000004e00004003200ce0090009d
:10072c003e009000c0ff070003003700ce00900091
:10073c003e009000c5ff07001e0fe9001e00780068
:10074c000000e000edff3d001e0090006300b900ca
:10075c00000078000000e8009e0890000080400037
:10076c0090407800514f980070002000000f7800e6
:10077c00100037005e4890008080fb001e0078005f
:10078c000088de0061006000004078000004e0009a
:10079c0004003200ce0090003e009000a2ff070043
:1007ac0003003700ce0090003e009000a7ff07002a
:1007bc001e0fe9001e0078000000e000edff3d0078
:1007cc001e0090006300b900000078000080e80073
:1007dc009e0890000080400090407800614f980087
:1007ec0070002000000f7800100037006e48900059
:1007fc008080fb001e0078000088de006100600035
:10080c00004078000004e00004003200ce009000ac
:10081c003e00900084ff070003003700ce009000dc
:10082c003e00900089ff07001e0fe9001e007800b3
:10083c000000e000edff3d000000fc001e009000f9
:10084c000000e800100798009e0090005e009000e9
:10085c00808f50009eff35000080fa0000000600db
:10086c001400fa00889fbe0070079800010f9800d2
:10087c00120f98000f0478000f00780080047800a5
:10088c007e00900090009000310798007e00900050
:10089c0040419000024f98003e0090006300b90068
:1008ac00000078008000e900510798000000e80083
:1008bc000000e8000000d100800040000f0078002c
:1008cc00818747000000e8000000d10000004000d4
:1008dc00600798000000eb00000f7800450037001f
:1008ec001e0078009e0890000080400010407800a8
:1008fc008e089000b6010700204798001e00780073
:10090c009e08900000804000104078008e089000f7
:10091c00a3010700304798001e0078009e08900045
:10092c0000804000104078008e089000b70107004e
:10093c00404798000e4890000004e0001800320078
:10094c003e4090008080fb000e4890000000fb00b1
:10095c000088b900000078004880de00304798001d
:10096c002e4090008080fb000e4890000000fb00a1
:10097c000088b900000078004880de00204798000d
:10098c004e4090008080fb000e4890000000fb0061
:10099c000088b900000078004880de0040479800cd
:1009ac001e0078006300b90000007800ee00900093
:1009bc002e419000827078001e0078006300b90010
:1009cc00000078000000e800ee0090003e4190002e
:1009dc00827078001e0078006300b9000000780077
:1009ec000080e800ee0090004e419000827078008c
:1009fc001e0fe8003e0090009e007800808f500093
:100a0c00b7ff35006e009000800078007e009000eb
:100a1c0017ff0700000a2000010020001d0207003c
:100a2c0089077800880778004f04be000080fa0020
:100a3c00000006000600fa00213a8000f08f2f001b
:100a4c0000806000203a88008202200061c0b30060
:100a5c000e007800cefe07001e01be00024088008a
:100a6c0013408800ae0190002340880082022000d1
:100a7c0051c0b3000e007800c5fe07001e01be0079
:100a8c003240880043408800ae01900053408800fb
:100a9c0069010700c0802000bd00070000000000b5
:100aac000080fa00000006005c00fa00e1ff07007d
:100abc0066004700000278008041eb000041eb002b
:100acc008040eb000040eb0015010700660047007a
:100adc000002780080c1eb0000c1eb0080c0eb008d
:100aec0010c0b3000e01070066004700000278003a
:100afc0080c1eb000041eb008040eb0020c0b30054
:100b0c000701070072004700000278008041eb00eb
:100b1c000041eb008040eb000040eb0000010700bf
:100b2c00720047000002780080c1eb0000c1eb00ae
:100b3c0080c0eb0010c0b300f90007007200470042
:100b4c00000278008041eb000041eb0080c0eb001c
:100b5c0020c0b300f20007007e00470000027800be
:100b6c008041eb000041eb008040eb000040eb00cb
:100b7c00eb0007007e0047000002780080c1eb000c
:100b8c0000c1eb0080c0eb0010c0b300e400070014
:100b9c007e004700000278008041eb0000c1eb00b2
:100bac0080c0eb0020c0b300dd000700c1c3b30060
:100bbc006080200091fe0700c1c3b30000802000bc
:100bcc008efe07000000eb00000f78006c00370071
:100bdc007002200010079800270037001e009000bc
:100bec001e005000200798002e0090000000e0002e
:100bfc000e003500ae00900080002000000178004f
:100c0c00110009008200d800502f98001e0190009e
:100c1c008000200080017800110009000301d80039
:100c2c00de289000808f500007003200a1022000c7
:100c3c008e8040001e009000008040008040eb0041
:100c4c000148780009003700618a20002e009000ce
:100c5c000080400090407800a20220000e0141006c
:100c6c001e00900000004100014878001e0090001a
:100c7c000000e900100798001e0090000000e00042
:100c8c00d6ff3d00a10220008e804000720047007c
:100c9c00010178008000780000802000f0fe070041
:100cac007002200010079800270037001e009000eb
:100cbc001e005000200798002e0090000000e0005d
:100ccc000e003500ae00900080002000000178007e
:100cdc00110009008200d800502f98001e019000ce
:100cec008000200080017800110009000301d80069
:100cfc00de289000808f500007003200a1022000f7
:100d0c008e8040001e009000008040008040eb0070
:100d1c000148780009003700e18720002e00900080
:100d2c000080400090407800a20220000e0141009b
:100d3c001e00900000004100014878001e00900049
:100d4c000000e900100798001e0090000000e00071
:100d5c00d6ff3d00a10220008e80400072004700ab
:100d6c00010178008000780060802000bcfe070044
:100d7c0000402200410f2000460107001e0fe80032
:100d8c001e007800e70f500091ff34008dff3700f4
:100d9c000200fa00000f78001e0278008041eb0080
:100dac000041eb008040eb000040eb005c000700d2
:100dbc001e027800a3cab3000041eb008040eb0098
:100dcc0010c0b300560007001e0278008041eb00f3
:100ddc00a2cab3008040eb0020c0b3005000070053
:100dec001e027800a3cab300a2cab3008040eb0075
:100dfc0030c0b3004a0007001e0278008041eb00af
:100e0c000041eb00a1cab30040c0b300440007008e
:100e1c001e027800a3cab3000041eb00a1cab300c4
:100e2c0050c0b3003e0007001e0278008041eb006a
:100e3c0052c5b300a1cab30060c0b30038000700ac
:100e4c001e027800a3cab300a2cab300a1cab300a1
:100e5c0070c0b300320007001e02780053c5b30007
:100e6c0052c5b30051c5b30080c0b3002c000700bd
:100e7c001e027800a3cab30052c5b30051c5b3001b
:100e8c0090c0b300260007001e02780053c5b300c3
:100e9c0000c1eb0051c5b300a0c0b3002000070097
:100eac001e02780080c1eb0000c1eb0051c5b300fd
:100ebc00b0c0b3001a0007001e02780053c5b3007f
:100ecc0052c5b30080c0eb00c0c0b30014000700d3
:100edc001e02780080c1eb0052c5b30080c0eb004d
:100eec00d0c0b3000e0007001e02780053c5b3003b
:100efc0000c1eb0080c0eb00e0c0b30008000700ad
:100f0c001e02780080c1eb0000c1eb0080c0eb003a
:100f1c00f0c0b300020007000080fa0000000600d9
:100f2c000600fa00004f78001147980022479800fd
:100f3c0033479800240798001e80fb004200dd0018
:100f4c00ae009000008340001e4090000080fb002b
:100f5c008000eb00c001dd00020020002e4090005c
:100f6c000082fb008002eb004828dd00c820de0078
:100f7c00810070004820dd0000017100818171004a
:100f8c003e4090000080fb008000eb0000007100f0
:100f9c0081807100008bbe000080fa00000006000a
:100fac000400fa00004f7800110798001e80fb0027
:100fbc004200dd009e009000008040001000be004a
:100fcc004008de00004078000080fa0000000600b7
:100fdc000400fa00004f7800110798001e80fb00f7
:100fec004200dd009e009000008040001000be001a
:100ffc004809dd004800de0000007100c808de0072
:10100c00004078000080fa00000006000400fa009e
:10101c00004f7800110798001e80fb004200dd0095
:10102c009e009000008040001000be000040780040
:10103c000080fa00000006000000fa00c8e2a800d8
:10104c00c902a8002c03a9002c23a900c002a800e7
:10105c00c022a800c902a800c942a8001221ef00b2
:10106c0040062000700888000a21ef002023ef00c2
:10107c002043a80001198000f0f12f0000806000cf
:10108c000060a000001988002223ef002343a80071
:10109c001119800030fc2f00008060000020a0009f
:1010ac00101988002423ef0010c0b30024e3b7000c
:1010bc0021198000f00f2e0080806000003020008d
:1010cc0001007000201988003023ef003003a800c5
:1010dc003023a80021e3a8000080fa0000000600dd
:1010ec001000fa00700798000000eb00000f780069
:1010fc000000eb00100798000000eb0020079800a0
:10110c0052168000000820000000610000f0a700cb
:10111c000000ea000000e9004f00de0030079800f4
:10112c0052168000001020000000610000f0a700a3
:10113c000000ea000000e9004f00de0040079800c4
:10114c000000eb00000f78001400370085a0a90008
:10115c0013e1a8000000000022048000000022001f
:10116c00000061000000e000fbff320013e1a90069
:10117c000a21ef0085a0a9001e0190000018800034
:10118c0000004100100798002e01900010188000fc
:10119c0000004100200798001e0fe8001e00780098
:1011ac00e40f5000e9ff34001e01900050002000b5
:1011bc0080017800110009000301d8005007980045
:1011cc002e019000500020008001780011000900d1
:1011dc000301d800600798003e029000ce029000f8
:1011ec005e039000ee039000fe0090008498be0019
:1011fc008690be007e0090000080fa000000060081
:020000040000fa
:10120c00740800005a0000000200000004020100f3
:10121c000f0f000001020300040002000000000098
:10122c0000000000020102000000000000000000ad
:10123c0002000000000000000000000000000000a0
:10124c000000000000000000000000000000020090
:10125c000202020000000000000201000102000076
:10126c00000000000202020002000000000000006a
:10127c000000000000000000000000000000000062
:10128c0000000000000800007400000000000000d6
:04129c00000000004e
:020000040000fa
:1012a000f03fb1000180b10006003500ee030900f7
:1012b00000000000403fb1000180b100fbff3d0095
:1012c0001000b000203fb00002003500008009008f
:0812d000000000000000060010
:020000040000fa
:020000040001f9
:0457f8000ff90000a5
:020000040000fa
:020000040001f9
:0457fc007f3f0000eb
:00000001FF
