:020000040000fa
:080000000002040000000000f2
:020000040000fa
:04000800c80200002a
:020000040000fa
:04000c00c802000026
:020000040000fa
:04001000c802000022
:020000040000fa
:04001400c80200001e
:020000040000fa
:04001800c80200001a
:020000040000fa
:04001c00c802000016
:020000040000fa
:04002000c802000012
:020000040000fa
:04002400c80200000e
:020000040000fa
:04002800c80200000a
:020000040000fa
:04002c00c802000006
:020000040000fa
:04003000c802000002
:020000040000fa
:04003400c8020000fe
:020000040000fa
:04003800c8020000fa
:020000040000fa
:04003c00c8020000f6
:020000040000fa
:04004000c8020000f2
:020000040000fa
:04004400c8020000ee
:020000040000fa
:04004800c8020000ea
:020000040000fa
:04004c00c8020000e6
:020000040000fa
:04005000c8020000e2
:020000040000fa
:04005400c8020000de
:020000040000fa
:04005800c8020000da
:020000040000fa
:04005c00c8020000d6
:020000040000fa
:04006000c8020000d2
:020000040000fa
:04006400c8020000ce
:020000040000fa
:04006800c8020000ca
:020000040000fa
:04006c00c8020000c6
:020000040000fa
:04007000c8020000c2
:020000040000fa
:04007400c8020000be
:020000040000fa
:04007800c8020000ba
:020000040000fa
:04007c00c8020000b6
:020000040000fa
:04008000c8020000b2
:020000040000fa
:04008400c8020000ae
:020000040000fa
:04008800c8020000aa
:020000040000fa
:04008c00c8020000a6
:020000040000fa
:04009000c8020000a2
:020000040000fa
:04009400c80200009e
:020000040000fa
:04009800c80200009a
:020000040000fa
:04009c00c802000096
:020000040000fa
:0400a000c802000092
:020000040000fa
:0400a400c80200008e
:020000040000fa
:0400a800c80200008a
:020000040000fa
:0400ac00c802000086
:020000040000fa
:0400b000c802000082
:020000040000fa
:0400b400c80200007e
:020000040000fa
:0400b800c80200007a
:020000040000fa
:0400bc00c802000076
:020000040000fa
:0400c000c802000072
:020000040000fa
:0400c400c80200006e
:020000040000fa
:0400c800c80200006a
:020000040000fa
:0400cc00c802000066
:020000040000fa
:0400d000c802000062
:020000040000fa
:0400d400c80200005e
:020000040000fa
:0400d800c80200005a
:020000040000fa
:0400dc00c802000056
:020000040000fa
:0400e000c802000052
:020000040000fa
:0400e400c80200004e
:020000040000fa
:0400e800c80200004a
:020000040000fa
:0400ec00c802000046
:020000040000fa
:0400f000c802000042
:020000040000fa
:0400f400c80200003e
:020000040000fa
:0400f800c80200003a
:020000040000fa
:0400fc00c802000036
:020000040000fa
:04010000c802000031
:020000040000fa
:04010400c80200002d
:020000040000fa
:04010800c802000029
:020000040000fa
:04010c00c802000025
:020000040000fa
:04011000c802000021
:020000040000fa
:04011400c80200001d
:020000040000fa
:04011800c802000019
:020000040000fa
:04011c00c802000015
:020000040000fa
:04012000c802000011
:020000040000fa
:04012400c80200000d
:020000040000fa
:04012800c802000009
:020000040000fa
:04012c00c802000005
:020000040000fa
:04013000c802000001
:020000040000fa
:04013400c8020000fd
:020000040000fa
:04013800c8020000f9
:020000040000fa
:04013c00c8020000f5
:020000040000fa
:04014000c8020000f1
:020000040000fa
:04014400c8020000ed
:020000040000fa
:04014800c8020000e9
:020000040000fa
:04020800c802000028
:020000040000fa
:04020c00c802000024
:020000040000fa
:04021000c802000020
:020000040000fa
:04021400c80200001c
:020000040000fa
:04021800c802000018
:020000040000fa
:04021c00c802000014
:020000040000fa
:04022000c802000010
:020000040000fa
:04022400c80200000c
:020000040000fa
:04022800c802000008
:020000040000fa
:04022c00c802000004
:020000040000fa
:04023000c802000000
:020000040000fa
:04023400c8020000fc
:020000040000fa
:04023800c8020000f8
:020000040000fa
:04023c00c8020000f4
:020000040000fa
:04024000c8020000f0
:020000040000fa
:04024400c8020000ec
:020000040000fa
:04024800c8020000e8
:020000040000fa
:04024c00c8020000e4
:020000040000fa
:04025000c8020000e0
:020000040000fa
:04025400c8020000dc
:020000040000fa
:04025800c8020000d8
:020000040000fa
:04025c00c8020000d4
:020000040000fa
:04026000c8020000d0
:020000040000fa
:04026400c8020000cc
:020000040000fa
:04026800c8020000c8
:020000040000fa
:04026c00c8020000c4
:020000040000fa
:04027000c8020000c0
:020000040000fa
:04027400c8020000bc
:020000040000fa
:04027800c8020000b8
:020000040000fa
:04027c00c8020000b4
:020000040000fa
:04028000c8020000b0
:020000040000fa
:04028400c8020000ac
:020000040000fa
:04028800c8020000a8
:020000040000fa
:04028c00c8020000a4
:020000040000fa
:04029000c8020000a0
:020000040000fa
:04029400c80200009c
:020000040000fa
:04029800c802000098
:020000040000fa
:04029c00c802000094
:020000040000fa
:0402a000c802000090
:020000040000fa
:0402a400c80200008c
:020000040000fa
:0402a800c802000088
:020000040000fa
:0402ac00c802000084
:020000040000fa
:0402b000c802000080
:020000040000fa
:0402b400c80200007c
:020000040000fa
:0402b800c802000078
:020000040000fa
:0402bc00c802000074
:020000040000fa
:0402c000c802000070
:020000040000fa
:0402c400c80200006c
:020000040000fa
:0402c800c802000068
:020000040000fa
:0402cc00c802000064
:020000040000fa
:0402d000c802000060
:020000040000fa
:0402d400c80200005c
:020000040000fa
:0402d800c802000058
:020000040000fa
:0402dc00c802000054
:020000040000fa
:0402e000c802000050
:020000040000fa
:0402e400c80200004c
:020000040000fa
:0402e800c802000048
:020000040000fa
:0402ec00c802000044
:020000040000fa
:0402f000c802000040
:020000040000fa
:0402f400c80200003c
:020000040000fa
:0402f800c802000038
:020000040000fa
:0402fc00c802000034
:020000040000fa
:04030000c80200002f
:020000040000fa
:04030400c80200002b
:020000040000fa
:04030800c802000027
:020000040000fa
:04030c00c802000023
:020000040000fa
:04031000c80200001f
:020000040000fa
:04031400c80200001b
:020000040000fa
:04031800c802000017
:020000040000fa
:04031c00c802000013
:020000040000fa
:04032000c80200000f
:020000040000fa
:04032400c80200000b
:020000040000fa
:04032800c802000007
:020000040000fa
:04032c00c802000003
:020000040000fa
:04033000c8020000ff
:020000040000fa
:04033400c8020000fb
:020000040000fa
:04033800c8020000f7
:020000040000fa
:04033c00c8020000f3
:020000040000fa
:04034000c8020000ef
:020000040000fa
:04034400c8020000eb
:020000040000fa
:04034800c8020000e7
:020000040000fa
:100400000f8620000e7f22000e01880000000000f1
:10041000000020000000e000020032000001200087
:1004200020028800140007005b0007000000e000c5
:1004300003003a00207b200001002000020037006a
:100440000000200001002000810f70000100320038
:1004500014000700000020000000e000020032004d
:10046000000002000000000066070200000000001b
:100470000040da000000fe004440a900a000200077
:100480000000e0000300320000002000a00188000e
:100490004440a800000006008a1f78008b1f7800e7
:1004a0000000060091018800800478000000eb0045
:1004b0001a003700e284440032a0b4009905ba0063
:1004c000e284440032a0b4009906ba00e2844400f9
:1004d00032a0b4000006eb00476fde00fd07b2005b
:1004e000636ce10003003a00ebff07000000eb0043
:1004f0000a003700606ce10004003a00005deb0088
:100500008b05e900fdff3e00040037006168e10053
:10051000010032000086eb000b00070019c7ba008b
:100520001905ba000e04e00003003a000a00e000da
:10053000e0ff3a0000000600fe07b2009e018800be
:100540008a047800f5ff3700395dba008b05e900b1
:100550000c003200295dba008b05e900080032006a
:100560000c00e00003003a00e284440032a0b40032
:10057000f5ff370019ddba008b05e900faff3a00f4
:100580008904e800e184440032a0b40000000600c1
:0c0590000040da000000fe000000050042
:020000040000fa
:10059c00010200000304000005060000070800002b
:0405ac00090a000038
:020000040000fa
:1005b0000000fa008041eb000041eb008040eb00be
:1005c0000040eb004e000700a3cab3000041eb005f
:1005d0008040eb0010c0b300490007008041eb00f1
:1005e000a2cab3008040eb0020c0b3004400070063
:1005f000a3cab300a2cab3008040eb0030c0b3006e
:100600003f0007008041eb000041eb00a1cab300ae
:1006100040c0b3003a000700a3cab3000041eb009a
:10062000a1cab30050c0b300350007008041eb0001
:1006300052c5b300a1cab30060c0b30030000700c8
:10064000a3cab300a2cab300a1cab30070c0b3006a
:100650002b00070053c5b30052c5b30051c5b3000a
:1006600080c0b30026000700a3cab30052c5b30080
:1006700051c5b30090c0b3002100070053c5b300bb
:1006800000c1eb0051c5b300a0c0b3001c000700bf
:1006900080c1eb0000c1eb0051c5b300b0c0b30096
:1006a0001700070053c5b30052c5b30080c0eb006c
:1006b000c0c0b3001200070080c1eb0052c5b300f8
:1006c00080c0eb00d0c0b3000d00070053c5b300dd
:1006d00000c1eb0080c0eb00e0c0b30008000700e1
:1006e00080c1eb0000c1eb0080c0eb00f0c0b300a4
:1006f00003000700008020000080fa0000000600d0
:100700000400fa00004f7800114798002247980033
:10071000334798001e80fb001e419000038020009c
:100720006300b900000078000080410002487800b2
:100730001e80fb002e419000038020006300b90062
:1007400000007800008041000000e80002487800c6
:100750001e80fb003e419000038020006300b90032
:1007600000007800008041000080e8000248780026
:100770000080fa00000006000600fa00004f780032
:1007800012079800230798001e82fb001e009000ad
:10079000ae0090004088de00cf80de00004178008f
:1007a000038020006320b900000078000080410031
:1007b000024878001e82fb001e009000ae009000f0
:1007c0004809dd004800de0000007100c888de0036
:1007d00000417800038020006320b9000000780009
:1007e000008041000000e800024878001e80fb0005
:1007f0009e00900001417800038020006300b90052
:1008000000007800008041000080e8000248780085
:100810000080fa00000006000200fa00004f780095
:100820001e80fb006300b9000000780001802000fa
:10083000614078000080fa00000006000200fa0023
:10084000004f78001e80fb006300b90000007800b4
:100850000000e80001802000614078000080fa007c
:10086000000006000200fa00004f78001e80fb0026
:100870006300b900000078000080e80001802000db
:10088000614078000080fa00000006000200fa00d3
:10089000004f78001e80fb006300b9000000780064
:1008a00001802000614078000080fb008000eb00a8
:1008b000c001dd00020020001e80fb006300b900c3
:1008c000000078000000e80001802000614078000e
:1008d0000082fb008002eb004828dd00c820de001b
:1008e000810070004820dd000001710081817100ed
:1008f0001e80fb006300b900000078000080e80063
:1009000001802000614078000080fb008000eb0047
:1009100000007100818071000080fa000000060074
:100920000a00fa006147980042079800ee409000e4
:10093000014f7800ce0090001107980080c0eb00b6
:100940004147980062198000c1e320008280700056
:1009500061198800ee4090008100fb001200200029
:100960008110dd000181ea004116800081006100f4
:10097000411688003e1878002e107800ae009000d6
:10098000210098000080fa00000006000400fa0030
:10099000000f780011079800ff3ffc0060168800e8
:1009a0000800090000000000611688000000fc003b
:1009b0000080fa00000006000400fa00000f780032
:1009c00011079800ff3ffc00601688000100090035
:1009d00000000000611688000000fc000080fa00a2
:1009e000000006001200fa00400798005107980026
:1009f00062079800634f9800744f9800055798005d
:100a00000e4890000000fb00110020000008dd00ef
:100a100010079800511680001e0090000100700021
:100a2000200798001e0090008080ea005016800089
:100a3000008060003007980070002000000f7800f0
:100a4000100037007e4890008080fb001e00780078
:100a50000088de0061006000004078000004e000d3
:100a600004003200be0090002e009000c7ff070077
:100a700003003700be0090002e009000ceff07005c
:100a80001e0fe9001e0078000000e000edff3d00b1
:100a900070002000000f7800100037006e489000b2
:100aa0008080fb001e0078000088de00610060008e
:100ab000004078000004e00004003200be00900016
:100ac0002e009000b1ff070003003700be00900029
:100ad0002e009000b8ff07001e0fe9001e007800ee
:100ae0000000e000edff3d0070002000000f7800e6
:100af000100037000e5090008080fb001e00780030
:100b00000088de0061006000004078000004e00022
:100b100004003200be0090002e0090009bff0700f2
:100b200003003700be0090002e009000a2ff0700d7
:100b30001e0fe9001e0078000000e000edff3d0000
:100b40000080fa00000006001200fa00400798003a
:100b5000510798006207980073079800040f9800e7
:100b6000de009000110798000000eb00000f7800f5
:100b7000290037001e0078008e0890000080400099
:100b8000104078000080fb006300b900000078008e
:100b9000fe0090000080400090407800414798009f
:100ba0001e0078008e089000008040001040780001
:100bb0000080fb006300b90000007800fe00900098
:100bc0000080400090409000514798001e0078003f
:100bd0008e08900000804000104078000080fb00ec
:100be0006300b90000007800fe0090000080400023
:100bf000a040900061479800de4290006e42900055
:100c0000ce4190004e009000de0090006e019000fa
:100c100074ff07001e0fe8001e0090009e00780081
:100c2000808f5000d3ff35000080fa0000000600de
:100c30000e00fa00213a8000f08f2f000080600043
:100c4000203a8800680047008202200061c0b3009b
:100c500033ff0700c8a2a900cca2a900cca2a8001b
:100c60000004200010079800511680001e0090001c
:100c700001007000200798001e0090008080ea00ac
:100c800050168000008060003007980000000000cf
:100c9000cca2a80080002000000f780004003700dc
:100ca000be0090002e00900038ff07001e0fe900e4
:100cb0001e0078000000e000f9ff3c0080002000ea
:100cc000000f780004003700be0090002e00900056
:100cd00039ff07001e0fe9001e0078000000e00049
:100ce000f9ff3c0080002000000f7800040037006e
:100cf000be0090002e0090002fff07001e0fe9009d
:100d00001e0078000000e000f9ff3c000000000039
:100d10000080fa00000006000800fa00000420002d
:100d200010079800511680001e009000010070000e
:100d3000200798001e0090008080ea005016800076
:100d4000008060003007980000000000cca2a800de
:100d500080002000000f780004003700be009000e3
:100d60002e00900009ff07001e0fe9001e0078000a
:100d70000000e000f9ff3c0080002000000f780038
:100d800004003700be0090002e0090000aff07000c
:100d90001e0fe9001e0078000000e000f9ff3c0093
:100da00080002000000f780004003700be00900093
:100db0002e00900000ff07001e0fe9001e007800c3
:100dc0000000e000f9ff3c0080002000000f7800e8
:100dd00004003700be0090002e009000f6fe0700d1
:100de0001e0fe9001e0078000000e000f9ff3c0043
:100df00080002000000f780004003700be00900043
:100e00002e009000e1fe07001e0fe9001e00780092
:100e10000000e000f9ff3c0080002000000f780097
:100e200004003700be0090002e009000e2fe070094
:100e30001e0fe9001e0078000000e000f9ff3c00f2
:100e400080002000000f780004003700be009000f2
:100e50002e009000d8fe07001e0fe9001e0078004b
:100e60000000e000f9ff3c0080002000000f780047
:100e700004003700be0090002e009000cefe070058
:100e80001e0fe9001e0078000000e000f9ff3c00a2
:100e900080002000000f780004003700be009000a2
:100ea0002e009000b9fe07001e0fe9001e0078001a
:100eb0000000e000f9ff3c0000802400811e2000bb
:100ec0001a0007000080fa00000006001200fa0075
:100ed00057ff0700e2004700e22c28000900090044
:100ee000b2587800b2fd0700000f78006c00470090
:100ef000a200200061c0b30089fe07001e00780038
:100f00008e80e80001027800800178006e00900079
:100f1000fe0090000e0990000bff070000802400e7
:0c0f2000811e200001000700f4ff3700d4
:020000040000fa
:100f2c00f03fb1000180b10006003500ee0309006e
:100f3c0000000000403fb1000180b100fbff3d000c
:100f4c001000b000203fb000020035000080090006
:080f5c00000000000000060087
:020000040000fa
:100f64000008000060000000000000000000000015
:020000040000fa
:020000040001f9
:0457f8000ff90000a5
:020000040000fa
:020000040001f9
:0457fc007f3f0000eb
:00000001FF
