:020000040000fa
:080000000002040000000000f2
:020000040000fa
:04000800c80200002a
:020000040000fa
:04000c00c802000026
:020000040000fa
:04001000c802000022
:020000040000fa
:04001400c80200001e
:020000040000fa
:04001800c80200001a
:020000040000fa
:04001c00c802000016
:020000040000fa
:04002000c802000012
:020000040000fa
:04002400c80200000e
:020000040000fa
:04002800c80200000a
:020000040000fa
:04002c00c802000006
:020000040000fa
:04003000c802000002
:020000040000fa
:04003400c8020000fe
:020000040000fa
:04003800c8020000fa
:020000040000fa
:04003c00c8020000f6
:020000040000fa
:04004000c8020000f2
:020000040000fa
:04004400c8020000ee
:020000040000fa
:04004800c8020000ea
:020000040000fa
:04004c00c8020000e6
:020000040000fa
:04005000c8020000e2
:020000040000fa
:04005400c8020000de
:020000040000fa
:04005800c8020000da
:020000040000fa
:04005c00c8020000d6
:020000040000fa
:04006000c8020000d2
:020000040000fa
:04006400c8020000ce
:020000040000fa
:04006800c8020000ca
:020000040000fa
:04006c00c8020000c6
:020000040000fa
:04007000c8020000c2
:020000040000fa
:04007400c8020000be
:020000040000fa
:04007800c8020000ba
:020000040000fa
:04007c00c8020000b6
:020000040000fa
:04008000c8020000b2
:020000040000fa
:04008400c8020000ae
:020000040000fa
:04008800c8020000aa
:020000040000fa
:04008c00c8020000a6
:020000040000fa
:04009000c8020000a2
:020000040000fa
:04009400c80200009e
:020000040000fa
:04009800c80200009a
:020000040000fa
:04009c00c802000096
:020000040000fa
:0400a000c802000092
:020000040000fa
:0400a400c80200008e
:020000040000fa
:0400a800c80200008a
:020000040000fa
:0400ac00c802000086
:020000040000fa
:0400b000c802000082
:020000040000fa
:0400b400c80200007e
:020000040000fa
:0400b800c80200007a
:020000040000fa
:0400bc00c802000076
:020000040000fa
:0400c000c802000072
:020000040000fa
:0400c400c80200006e
:020000040000fa
:0400c800c80200006a
:020000040000fa
:0400cc00c802000066
:020000040000fa
:0400d000c802000062
:020000040000fa
:0400d400c80200005e
:020000040000fa
:0400d800c80200005a
:020000040000fa
:0400dc00c802000056
:020000040000fa
:0400e000c802000052
:020000040000fa
:0400e400c80200004e
:020000040000fa
:0400e800c80200004a
:020000040000fa
:0400ec00c802000046
:020000040000fa
:0400f000c802000042
:020000040000fa
:0400f400c80200003e
:020000040000fa
:0400f800c80200003a
:020000040000fa
:0400fc00c802000036
:020000040000fa
:04010000c802000031
:020000040000fa
:04010400c80200002d
:020000040000fa
:04010800c802000029
:020000040000fa
:04010c00c802000025
:020000040000fa
:04011000c802000021
:020000040000fa
:04011400c80200001d
:020000040000fa
:04011800c802000019
:020000040000fa
:04011c00c802000015
:020000040000fa
:04012000c802000011
:020000040000fa
:04012400c80200000d
:020000040000fa
:04012800c802000009
:020000040000fa
:04012c00c802000005
:020000040000fa
:04013000c802000001
:020000040000fa
:04013400c8020000fd
:020000040000fa
:04013800c8020000f9
:020000040000fa
:04013c00c8020000f5
:020000040000fa
:04014000c8020000f1
:020000040000fa
:04014400c8020000ed
:020000040000fa
:04014800c8020000e9
:020000040000fa
:04020800c802000028
:020000040000fa
:04020c00c802000024
:020000040000fa
:04021000c802000020
:020000040000fa
:04021400c80200001c
:020000040000fa
:04021800c802000018
:020000040000fa
:04021c00c802000014
:020000040000fa
:04022000c802000010
:020000040000fa
:04022400c80200000c
:020000040000fa
:04022800c802000008
:020000040000fa
:04022c00c802000004
:020000040000fa
:04023000c802000000
:020000040000fa
:04023400c8020000fc
:020000040000fa
:04023800c8020000f8
:020000040000fa
:04023c00c8020000f4
:020000040000fa
:04024000c8020000f0
:020000040000fa
:04024400c8020000ec
:020000040000fa
:04024800c8020000e8
:020000040000fa
:04024c00c8020000e4
:020000040000fa
:04025000c8020000e0
:020000040000fa
:04025400c8020000dc
:020000040000fa
:04025800c8020000d8
:020000040000fa
:04025c00c8020000d4
:020000040000fa
:04026000c8020000d0
:020000040000fa
:04026400c8020000cc
:020000040000fa
:04026800c8020000c8
:020000040000fa
:04026c00c8020000c4
:020000040000fa
:04027000c8020000c0
:020000040000fa
:04027400c8020000bc
:020000040000fa
:04027800c8020000b8
:020000040000fa
:04027c00c8020000b4
:020000040000fa
:04028000c8020000b0
:020000040000fa
:04028400c8020000ac
:020000040000fa
:04028800c8020000a8
:020000040000fa
:04028c00c8020000a4
:020000040000fa
:04029000c8020000a0
:020000040000fa
:04029400c80200009c
:020000040000fa
:04029800c802000098
:020000040000fa
:04029c00c802000094
:020000040000fa
:0402a000c802000090
:020000040000fa
:0402a400c80200008c
:020000040000fa
:0402a800c802000088
:020000040000fa
:0402ac00c802000084
:020000040000fa
:0402b000c802000080
:020000040000fa
:0402b400c80200007c
:020000040000fa
:0402b800c802000078
:020000040000fa
:0402bc00c802000074
:020000040000fa
:0402c000c802000070
:020000040000fa
:0402c400c80200006c
:020000040000fa
:0402c800c802000068
:020000040000fa
:0402cc00c802000064
:020000040000fa
:0402d000c802000060
:020000040000fa
:0402d400c80200005c
:020000040000fa
:0402d800c802000058
:020000040000fa
:0402dc00c802000054
:020000040000fa
:0402e000c802000050
:020000040000fa
:0402e400c80200004c
:020000040000fa
:0402e800c802000048
:020000040000fa
:0402ec00c802000044
:020000040000fa
:0402f000c802000040
:020000040000fa
:0402f400c80200003c
:020000040000fa
:0402f800c802000038
:020000040000fa
:0402fc00c802000034
:020000040000fa
:04030000c80200002f
:020000040000fa
:04030400c80200002b
:020000040000fa
:04030800c802000027
:020000040000fa
:04030c00c802000023
:020000040000fa
:04031000c80200001f
:020000040000fa
:04031400c80200001b
:020000040000fa
:04031800c802000017
:020000040000fa
:04031c00c802000013
:020000040000fa
:04032000c80200000f
:020000040000fa
:04032400c80200000b
:020000040000fa
:04032800c802000007
:020000040000fa
:04032c00c802000003
:020000040000fa
:04033000c8020000ff
:020000040000fa
:04033400c8020000fb
:020000040000fa
:04033800c8020000f7
:020000040000fa
:04033c00c8020000f3
:020000040000fa
:04034000c8020000ef
:020000040000fa
:04034400c8020000eb
:020000040000fa
:04034800c8020000e7
:020000040000fa
:10040000cf8320000e7f22000e0188000000000034
:10041000000020000000e000020032000001200087
:1004200020028800140007005b0007000000e000c5
:1004300003003a00809120000100200002003700f4
:100440000000200001002000810f70000100320038
:1004500014000700000020000000e000020032004d
:100460000000020000000000f4080200000000008c
:100470000040da000000fe004440a9000000200017
:100480000000e0000300320000002000a00188000e
:100490004440a800000006008a1f78008b1f7800e7
:1004a0000000060091018800800478000000eb0045
:1004b0001a003700e284440032a0b4009905ba0063
:1004c000e284440032a0b4009906ba00e2844400f9
:1004d00032a0b4000006eb00476fde00fd07b2005b
:1004e000636ce10003003a00ebff07000000eb0043
:1004f0000a003700606ce10004003a00005deb0088
:100500008b05e900fdff3e00040037006168e10053
:10051000010032000086eb000b00070019c7ba008b
:100520001905ba000e04e00003003a000a00e000da
:10053000e0ff3a0000000600fe07b2009e018800be
:100540008a047800f5ff3700395dba008b05e900b1
:100550000c003200295dba008b05e900080032006a
:100560000c00e00003003a00e284440032a0b40032
:10057000f5ff370019ddba008b05e900faff3a00f4
:100580008904e800e184440032a0b40000000600c1
:0c0590000040da000000fe000000050042
:020000040000fa
:10059c000200fa000000eb00000f78001622ef00ba
:1005ac0017e2a900f0042000a01088001822ef0028
:1005bc0017a2a80017e2a80081108000010f780094
:1005cc000080fa00000006000200fa0000c0eb00f8
:1005dc00004f780000000000b01080006100600047
:1005ec000000e000fcff3a00b010800064006000e6
:1005fc000000e000f8ff3a00b010800068006000d6
:10060c000000e000f4ff3a00b010800062006000cf
:10061c000000e000f0ff3a00b010800070006000b5
:10062c000000e000ecff3a00c11080000000240044
:10063c00008060000000e000e7ff3a001e80fb0035
:10064c000000ea004f00de00004078001e4fe90079
:10065c000004e000e0ff3a000080fa000000060011
:10066c000000fa00d8ff07001602a800c110800095
:10067c0000402000008060000000e000020032001a
:10068c000000eb0002003700cfff07001000200035
:10069c000080fa00000006000200fa000000eb00e7
:1006ac00000f7800c8ff07001642a80009003700a9
:1006bc0010c0b300210320001e017800810f5100ef
:1006cc0001003c000040eb001e0fe8000004e000bd
:1006dc0005003a00b0108000640060000000e000eb
:1006ec00f3ff3a0001003700000000001662a90079
:1006fc0018e2a9001942a900b3ff07000080fa0014
:10070c00000006000200fa00004f78001e80fb007b
:10071c0090108800c110800000082000008060004c
:10072c000000e000020032000000eb000f00370078
:10073c0000000000c1108000000024000080600058
:10074c000000e000fbff3a00c110800000402000d8
:10075c00008060000000e000020032000000eb00ae
:10076c000200370098ff0700100020000080fa00fc
:10077c00000006000a00fa00404798003107980074
:10078c00024f9800134f98000040eb001047980060
:10079c000040eb00204798000040eb00004f780031
:1007ac000e003700aeff07001e48900000404000ce
:1007bc00d4ff070084ff0700c11080000000280050
:1007cc00008060000000e00003003a0010c0b3009d
:1007dc0010479800050037001e4fe80030c6b300e4
:1007ec009e40780080cf5000eeff36001e409000f7
:1007fc000004e00002003a000000eb00500037005b
:10080c000040eb00104798004e409000bdff0700e1
:10081c00c110800000002800008060000000e00093
:10082c00020032000000eb00450037000040eb00f6
:10083c00304798001200370089ff07001e489000cf
:10084c000080fb0000004000004078000004a00085
:10085c00acff0700c1108000000028000080600081
:10086c000000e00003003a0010c0b30010479800ed
:10087c00070037003e4090000040e80030479800e9
:10088c00be40900030c6b30080cf5000eaff360067
:10089c001e4090000004e00002003a000000eb0053
:1008ac00270037000040eb00004f78001e00370097
:1008bc0045ff07001662a80000000000b010800081
:1008cc00680060000000e000fcff3a003eff0700fb
:1008dc0018c2a9001e80fb00be00900000804000e2
:1008ec008110800081407800014878001e80fb0058
:1008fc008000e8000e4890000080fb00808f5000c4
:10090c0004003a0016a2a8001682a80062ff070095
:10091c000200370016a2a9001682a80010c0b3006e
:10092c00204798001e4fe8000e4890009e4078002b
:10093c0080cf5000deff39002e4090000080fb007d
:10094c000080fa00000006000a00fa0040479800f8
:10095c0031079800024f9800134f98000040eb00ad
:10096c00104798000040eb00004f78000e00370055
:10097c003bff07001e4890000040400061ff07004d
:10098c0011ff0700c11080000000280000806000eb
:10099c000000e00003003a0010c0b30010479800bc
:1009ac00050037001e4fe80030c6b3009e407800ab
:1009bc0080cf5000eeff36001e4090000004e00097
:1009cc0002003a000000eb001d0037004e40900082
:1009dc004cff0700fcfe07000040eb00204798008e
:1009ec0011003700c110800000002800008060005a
:1009fc000000e0000a003a002e4090000080fb004e
:100a0c00be00900000804000104078003dff0700c1
:100a1c002e4090000040e80020479800020037006c
:100a2c000000eb0006003700ae4090000e4890002e
:100a3c0080cf5000ebff390017ff0700100020009b
:100a4c000080fa00000006000400fa00004f780055
:100a5c0011479800224798000e00e800ae41900024
:100a6c0012c0b300800078001e407800b6ff07006b
:100a7c000080fa00000006000a00fa0061479800a6
:100a8c0042079800ee409000014f7800ce00900095
:100a9c00110798008040eb004147980062198000d4
:100aac00c1e320008280700061198800ee40900044
:100abc008100fb00120020008110dd000181ea00a2
:100acc004116800081006100411688003e187800b4
:100adc002e107800ae009000210098000080fa00e3
:100aec00000006000400fa00000f780011079800bf
:100afc0060168800080009000000000061168800dc
:100b0c000080fa00000006000400fa00000f7800d4
:100b1c001107980060168800010009000000000011
:100b2c00611688000080fa00000006000e00fa0032
:100b3c0040079800214f9800324f9800434f98007f
:100b4c004e009000104078000000fb0011002000c7
:100b5c000008dd0010079800511680001e00900060
:100b6c0001007000200798001e0090008080ea00b1
:100b7c005016800000806000300798004e009000f6
:100b8c00404090000004e0001b0032002e48900012
:100b9c008080fb004e009000404090000080fb00e5
:100bac000088b900000078004880de00204f9800d3
:100bbc003e4890008080fb004e009000404090002a
:100bcc000080fb000088b900000078004880de003f
:100bdc00304f98004e4890008080fb004e009000f3
:100bec00404090000080fb000088b90000007800b5
:100bfc004880de00404f9800ff3ffc007000200052
:100c0c00000f7800100037003e4890008080fb00f9
:100c1c001e0078000088de00610060000040780053
:100c2c000004e00004003200be0090002e00900092
:100c3c00acff070003003700be0090002e009000b0
:100c4c00b1ff07001e0fe9001e0078000000e00055
:100c5c00edff3d0070002000000f78001000370001
:100c6c002e4890008080fb001e0078000088de007b
:100c7c0061006000004078000004e00004003200d5
:100c8c00be0090002e00900096ff07000300370076
:100c9c00be0090002e0090009bff07001e0fe90085
:100cac001e0078000000e000edff3d007000200009
:100cbc00000f7800100037004e4890008080fb0039
:100ccc001e0078000088de006100600000407800a3
:100cdc000004e00004003200be0090002e009000e2
:100cec0080ff070003003700be0090002e0090002c
:100cfc0085ff07001e0fe9001e0078000000e000d1
:100d0c00edff3d000000fc000080fa000000060032
:100d1c000400fa00000f7800214798001e007800ac
:100d2c00ae409000414098000080fa0000000600a0
:100d3c000000fa0016fe070022c5b3008040eb004d
:100d4c0000c4b30040ff07000080fa00000006005a
:100d5c000200fa00004f78001602a8000000000004
:100d6c00b0108000610060000000e000fcff3a0061
:100d7c008a40a9001e80fb00901088000000000033
:100d8c0050048000640060000000e000fcff3200b2
:100d9c000080fa00000006000200fa00004f780004
:100dac00c842a9008a40a9001e80fb009010880050
:100dbc000000000050048000640060000000e000af
:100dcc00fcff32000080fa00000006000000fa0070
:100ddc008a40a9001642a80000000000b010800054
:100dec00640060000000e000fcff3a000080fa00a4
:100dfc00000006000000fa00c842a8008a40a900c2
:100e0c001662a8000000000050048000640060001e
:100e1c000000e000fcff32008a40a9008010800036
:100e2c00004078000080fa00000006001200fa0072
:100e3c00881f7800000478000000eb00000f780099
:100e4c006c00470023c5b30062c0b300800078007b
:100e5c000040eb0047fe07000000eb00000f78009d
:100e6c00090037006c0047001e004000104078005d
:100e7c0070c1b200f74040006c0047001e004000fb
:100e8c00014878001e0fe8001e007800e50f5000a6
:100e9c00f4ff34004e489000204798005e489000c4
:100eac00304798006e4890000080fb00c200dd00c7
:100ebc001e5090000080fb004200de0000407800d5
:100ecc000080fb0063006000010070003007980098
:100edc007e4890000080fb00c200dd001e50900098
:100eec000080fb004400de00004078000080fb0026
:100efc006300600001007000400798000e509000e5
:100f0c000080fb00c200dd001e5090000080fb0042
:100f1c004600de00004078000080fb0063006000ab
:100f2c0001007000500798001e5090000080fb00dc
:100f3c006200600000f0a7000000ea000000e90079
:100f4c004f00de0000407800404798005e4890005b
:100f5c000080fb000000e9004f00de00004078003c
:100f6c00504798000e80e80088007800b018780090
:100f7c00a0107800e480400064004000b0187800b5
:100f8c00a0107800e48040006400400090087800d5
:100f9c008180e8000080e800080078004f047800a9
:100fac000080fa00000006000400fa00004f7800f0
:100fbc001147980022479800334798001e80fb0089
:100fcc001e419000038020006300b90000007800ef
:100fdc0000804100024878001e80fb002e419000ea
:100fec00038020006300b9000000780000804100fd
:100ffc000000e800024878001e80fb003e41900093
:10100c00038020006300b9000000780000804100dc
:10101c000080e800024878000080fa00000006001a
:10102c000600fa00004f780012079800230798007a
:10103c001e82fb001e009000ae0090004088de0077
:10104c00cf80de0000417800038020006320b900cf
:10105c000000780000804100024878001e82fb00ee
:10106c001e009000ae0090004809dd004800de0034
:10107c0000007100c888de00004178000380200069
:10108c006320b90000007800008041000000e800f7
:10109c00024878001e80fb009e0090000141780001
:1010ac00038020006300b90000007800008041003c
:1010bc000080e800024878000080fa00000006007a
:1010cc000200fa00004f78001e80fb006300b9009c
:1010dc000000780001802000614078000080fa0058
:1010ec00000006000200fa00004f78001e80fb0092
:1010fc006300b900000078000000e80001802000c7
:10110c00614078000080fa00000006000200fa003e
:10111c00004f78001e80fb006300b90000007800cf
:10112c000080e80001802000614078000080fa0017
:10113c00000006000600fa00213a8000f08f2f0014
:10114c0000806000203a8800c082a9000032200094
:10115c000100200025000700f5fe070052002000ca
:10116c0051c0b3000e00780043fe07001e01be0004
:10117c008241880093418800ae019000a341880011
:10118c005200200061c0b3000e0078003afe070048
:10119c001e01be00b2418800c3418800ae01900020
:1011ac00d3418800000000000080fa000000060017
:1011bc000a00fa000e0078001cff07002e40900079
:1011cc000004e00002003200c482a80001003700d5
:1011dc00c482a9000080fa00000006000000fa009a
:0c11ec00d4ff0700f2ff0700feff3700f1
:020000040000fa
:1011f800f03fb1000180b10006003500ee030900a0
:1012080000000000403fb1000180b100fbff3d003d
:101218001000b000203fb000020035000080090037
:081228000000000000000600b8
:020000040000fa
:10123000300800000c000000000000000008000062
:0c12400030000000000000000000000072
:020000040000fa
:020000040001f9
:0457f8000ff90000a5
:020000040000fa
:020000040001f9
:0457fc007f3f0000eb
:00000001FF
