:020000040000fa
:080000000002040000000000f2
:020000040000fa
:04000800c80200002a
:020000040000fa
:04000c00c802000026
:020000040000fa
:04001000c802000022
:020000040000fa
:04001400c80200001e
:020000040000fa
:04001800c80200001a
:020000040000fa
:04001c00c802000016
:020000040000fa
:04002000c802000012
:020000040000fa
:04002400c80200000e
:020000040000fa
:04002800c80200000a
:020000040000fa
:04002c00c802000006
:020000040000fa
:04003000c802000002
:020000040000fa
:04003400c8020000fe
:020000040000fa
:04003800c8020000fa
:020000040000fa
:04003c00c8020000f6
:020000040000fa
:04004000c8020000f2
:020000040000fa
:04004400c8020000ee
:020000040000fa
:04004800c8020000ea
:020000040000fa
:04004c00c8020000e6
:020000040000fa
:04005000c8020000e2
:020000040000fa
:04005400c8020000de
:020000040000fa
:04005800c8020000da
:020000040000fa
:04005c00c8020000d6
:020000040000fa
:04006000c8020000d2
:020000040000fa
:04006400c8020000ce
:020000040000fa
:04006800c8020000ca
:020000040000fa
:04006c00c8020000c6
:020000040000fa
:04007000c8020000c2
:020000040000fa
:04007400c8020000be
:020000040000fa
:04007800c8020000ba
:020000040000fa
:04007c00c8020000b6
:020000040000fa
:04008000c8020000b2
:020000040000fa
:04008400c8020000ae
:020000040000fa
:04008800c8020000aa
:020000040000fa
:04008c00c8020000a6
:020000040000fa
:04009000c8020000a2
:020000040000fa
:04009400c80200009e
:020000040000fa
:04009800c80200009a
:020000040000fa
:04009c00c802000096
:020000040000fa
:0400a000c802000092
:020000040000fa
:0400a400c80200008e
:020000040000fa
:0400a800c80200008a
:020000040000fa
:0400ac00c802000086
:020000040000fa
:0400b000c802000082
:020000040000fa
:0400b400c80200007e
:020000040000fa
:0400b800c80200007a
:020000040000fa
:0400bc00c802000076
:020000040000fa
:0400c000c802000072
:020000040000fa
:0400c400c80200006e
:020000040000fa
:0400c800c80200006a
:020000040000fa
:0400cc00c802000066
:020000040000fa
:0400d000c802000062
:020000040000fa
:0400d400c80200005e
:020000040000fa
:0400d800c80200005a
:020000040000fa
:0400dc00c802000056
:020000040000fa
:0400e000c802000052
:020000040000fa
:0400e400c80200004e
:020000040000fa
:0400e800c80200004a
:020000040000fa
:0400ec00c802000046
:020000040000fa
:0400f000c802000042
:020000040000fa
:0400f400c80200003e
:020000040000fa
:0400f800c80200003a
:020000040000fa
:0400fc00c802000036
:020000040000fa
:04010000c802000031
:020000040000fa
:04010400c80200002d
:020000040000fa
:04010800c802000029
:020000040000fa
:04010c00c802000025
:020000040000fa
:04011000c802000021
:020000040000fa
:04011400c80200001d
:020000040000fa
:04011800c802000019
:020000040000fa
:04011c00c802000015
:020000040000fa
:04012000c802000011
:020000040000fa
:04012400c80200000d
:020000040000fa
:04012800c802000009
:020000040000fa
:04012c00c802000005
:020000040000fa
:04013000c802000001
:020000040000fa
:04013400c8020000fd
:020000040000fa
:04013800c8020000f9
:020000040000fa
:04013c00c8020000f5
:020000040000fa
:04014000c8020000f1
:020000040000fa
:04014400c8020000ed
:020000040000fa
:04014800c8020000e9
:020000040000fa
:04020800c802000028
:020000040000fa
:04020c00c802000024
:020000040000fa
:04021000c802000020
:020000040000fa
:04021400c80200001c
:020000040000fa
:04021800c802000018
:020000040000fa
:04021c00c802000014
:020000040000fa
:04022000c802000010
:020000040000fa
:04022400c80200000c
:020000040000fa
:04022800c802000008
:020000040000fa
:04022c00c802000004
:020000040000fa
:04023000c802000000
:020000040000fa
:04023400c8020000fc
:020000040000fa
:04023800c8020000f8
:020000040000fa
:04023c00c8020000f4
:020000040000fa
:04024000c8020000f0
:020000040000fa
:04024400c8020000ec
:020000040000fa
:04024800c8020000e8
:020000040000fa
:04024c00c8020000e4
:020000040000fa
:04025000c8020000e0
:020000040000fa
:04025400c8020000dc
:020000040000fa
:04025800c8020000d8
:020000040000fa
:04025c00c8020000d4
:020000040000fa
:04026000c8020000d0
:020000040000fa
:04026400c8020000cc
:020000040000fa
:04026800c8020000c8
:020000040000fa
:04026c00c8020000c4
:020000040000fa
:04027000c8020000c0
:020000040000fa
:04027400c8020000bc
:020000040000fa
:04027800c8020000b8
:020000040000fa
:04027c00c8020000b4
:020000040000fa
:04028000c8020000b0
:020000040000fa
:04028400c8020000ac
:020000040000fa
:04028800c8020000a8
:020000040000fa
:04028c00c8020000a4
:020000040000fa
:04029000c8020000a0
:020000040000fa
:04029400c80200009c
:020000040000fa
:04029800c802000098
:020000040000fa
:04029c00c802000094
:020000040000fa
:0402a000c802000090
:020000040000fa
:0402a400c80200008c
:020000040000fa
:0402a800c802000088
:020000040000fa
:0402ac00c802000084
:020000040000fa
:0402b000c802000080
:020000040000fa
:0402b400c80200007c
:020000040000fa
:0402b800c802000078
:020000040000fa
:0402bc00c802000074
:020000040000fa
:0402c000c802000070
:020000040000fa
:0402c400c80200006c
:020000040000fa
:0402c800c802000068
:020000040000fa
:0402cc00c802000064
:020000040000fa
:0402d000c802000060
:020000040000fa
:0402d400c80200005c
:020000040000fa
:0402d800c802000058
:020000040000fa
:0402dc00c802000054
:020000040000fa
:0402e000c802000050
:020000040000fa
:0402e400c80200004c
:020000040000fa
:0402e800c802000048
:020000040000fa
:0402ec00c802000044
:020000040000fa
:0402f000c802000040
:020000040000fa
:0402f400c80200003c
:020000040000fa
:0402f800c802000038
:020000040000fa
:0402fc00c802000034
:020000040000fa
:04030000c80200002f
:020000040000fa
:04030400c80200002b
:020000040000fa
:04030800c802000027
:020000040000fa
:04030c00c802000023
:020000040000fa
:04031000c80200001f
:020000040000fa
:04031400c80200001b
:020000040000fa
:04031800c802000017
:020000040000fa
:04031c00c802000013
:020000040000fa
:04032000c80200000f
:020000040000fa
:04032400c80200000b
:020000040000fa
:04032800c802000007
:020000040000fa
:04032c00c802000003
:020000040000fa
:04033000c8020000ff
:020000040000fa
:04033400c8020000fb
:020000040000fa
:04033800c8020000f7
:020000040000fa
:04033c00c8020000f3
:020000040000fa
:04034000c8020000ef
:020000040000fa
:04034400c8020000eb
:020000040000fa
:04034800c8020000e7
:020000040000fa
:10040000cf8020000e7f22000e0188000000000037
:10041000000020000000e000020032000001200087
:1004200020028800140007005b0007000000e000c5
:1004300003003a00a06b20000100200002003700fa
:100440000000200001002000810f70000100320038
:1004500014000700000020000000e000020032004d
:10046000000002000000000024060200000000005e
:100470000040da000000fe004440a900a000200077
:100480000000e0000300320000002000a00188000e
:100490004440a800000006008a1f78008b1f7800e7
:1004a0000000060091018800800478000000eb0045
:1004b0001a003700e284440032a0b4009905ba0063
:1004c000e284440032a0b4009906ba00e2844400f9
:1004d00032a0b4000006eb00476fde00fd07b2005b
:1004e000636ce10003003a00ebff07000000eb0043
:1004f0000a003700606ce10004003a00005deb0088
:100500008b05e900fdff3e00040037006168e10053
:10051000010032000086eb000b00070019c7ba008b
:100520001905ba000e04e00003003a000a00e000da
:10053000e0ff3a0000000600fe07b2009e018800be
:100540008a047800f5ff3700395dba008b05e900b1
:100550000c003200295dba008b05e900080032006a
:100560000c00e00003003a00e284440032a0b40032
:10057000f5ff370019ddba008b05e900faff3a00f4
:100580008904e800e184440032a0b40000000600c1
:0c0590000040da000000fe000000050042
:020000040000fa
:10059c00030500000601000001000000010200003c
:0405ac00000100004a
:020000040000fa
:1005b0000a00fa006147980042079800ee40900058
:1005c000014f7800ce0090001107980080c0eb002a
:1005d0004147980062198000c1e3200082807000ca
:1005e00061198800ee4090008100fb00120020009d
:1005f0008110dd000181ea00411680008100610068
:10060000411688003e1878002e107800ae00900049
:10061000210098000080fa00000006000400fa00a3
:10062000000f7800214798002e4090000040e8001d
:10063000204798001e007800ae409000414098008e
:100640000080fa00000006000400fa00000f7800a5
:1006500011079800601688000800090000000000db
:10066000611688000080fa00000006000400fa000d
:10067000000f78001107980060168800010009003b
:1006800000000000611688000080fa0000000600eb
:100690000e00fa0040079800214f9800324f980052
:1006a000434f98004e009000104078000000fb007f
:1006b000110020000008dd0010079800511680008e
:1006c0001e00900001007000200798001e0090009e
:1006d0008080ea005016800000806000300798009b
:1006e0004e009000404090000004e0001b003200eb
:1006f0002e4890008080fb004e009000404090000b
:100700000080fb000088b900000078004880de000f
:10071000204f98003e4890008080fb004e009000e3
:10072000404090000080fb000088b9000000780085
:100730004880de00304f98004e4890008080fb00db
:100740004e009000404090000080fb000088b900ff
:10075000000078004880de00404f9800ff3ffc001a
:1007600070002000000f7800100037003e48900015
:100770008080fb001e0078000088de0061006000c1
:10078000004078000004e00004003200be00900049
:100790002e009000acff070003003700be00900061
:1007a0002e009000b1ff07001e0fe9001e00780028
:1007b0000000e000edff3d0070002000000f780019
:1007c000100037002e4890008080fb001e0078004b
:1007d0000088de0061006000004078000004e00056
:1007e00004003200be0090002e00900096ff07002b
:1007f00003003700be0090002e0090009bff070012
:100800001e0fe9001e0078000000e000edff3d0033
:1008100070002000000f7800100037004e48900054
:100820008080fb001e0078000088de006100600010
:10083000004078000004e00004003200be00900098
:100840002e00900080ff070003003700be009000dc
:100850002e00900085ff07001e0fe9001e007800a3
:100860000000e000edff3d000000fc000080fa0009
:10087000000006000e00fa0040079800510798009b
:10088000620798004e0090009000900011079800b9
:100890000000eb00000f78001b0037001e007800fe
:1008a000ee0090000080400010407800de009000d4
:1008b000a2000700404798001e007800ee0090005c
:1008c0000080400010407800de009000a700070084
:1008d000504798001e007800ee0090000080400015
:1008e00010407800de009000af00070060479800dd
:1008f000ee4190005e419000ce4090004e0090008e
:1009000063ff07001e0fe8001e0090009e007800a5
:10091000808f5000e1ff3500000a20000100200018
:10092000060107000080fa00000006000200fa003d
:10093000000f78001e0278008041eb000041eb00c0
:100940008040eb000040eb005c0007001e027800d6
:10095000a3cab3000041eb008040eb0010c0b3001d
:10096000560007001e0278008041eb00a2cab300c7
:100970008040eb0020c0b300500007001e0278004a
:10098000a3cab300a2cab3008040eb0030c0b300da
:100990004a0007001e0278008041eb000041eb0096
:1009a000a1cab30040c0b300440007001e02780093
:1009b000a3cab3000041eb00a1cab30050c0b3000a
:1009c0003e0007001e0278008041eb0052c5b300d4
:1009d000a1cab30060c0b300380007001e0278004f
:1009e000a3cab300a2cab300a1cab30070c0b300c7
:1009f000320007001e02780053c5b30052c5b30091
:100a000051c5b30080c0b3002c0007001e0278005f
:100a1000a3cab30052c5b30051c5b30090c0b30020
:100a2000260007001e02780053c5b30000c1eb008a
:100a300051c5b300a0c0b300200007001e0278001b
:100a400080c1eb0000c1eb0051c5b300b0c0b300e2
:100a50001a0007001e02780053c5b30052c5b30048
:100a600080c0eb00c0c0b300140007001e02780075
:100a700080c1eb0052c5b30080c0eb00d0c0b30012
:100a80000e0007001e02780053c5b30000c1eb0042
:100a900080c0eb00e0c0b300080007001e02780031
:100aa00080c1eb0000c1eb0080c0eb00f0c0b300e0
:100ab000020007000080fa00000006000600fa00ad
:100ac000004f78001147980022479800334798005c
:100ad000240798001e80fb004200dd00ae0090005d
:100ae000008340001e4090000080fb008000eb006f
:100af000c001dd00020020003e4090000082fb00ab
:100b00008002eb004828dd00c820de008100700074
:100b10004820dd0000017100818171002e409000ad
:100b20000080fb008000eb000000710081807100fc
:100b3000008bbe000080fa00000006000400fa00ee
:100b4000004f7800110798001e80fb004200dd0076
:100b50009e009000008040001000be004008de00b3
:100b6000004078000080fa00000006000400fa004f
:100b7000004f7800110798001e80fb004200dd0046
:100b80009e009000008040001000be004809dd007b
:100b90004800de0000007100c808de000040780058
:100ba0000080fa00000006000400fa00004f780000
:100bb000110798001e80fb004200dd009e0090009f
:100bc000008040001000be00004078000080fa0065
:100bd000000006000600fa00213a8000f08f2f0086
:100be00000806000203a88005200200061c0b300fd
:100bf0000e0078006efe07001e01be000240880055
:100c000013408800ae01900023408800520020006d
:100c100051c0b3000e00780065fe07001e01be0043
:100c20003240880043408800ae0190005340880065
:100c3000000000000080fa00000006000000fa003a
:100c40000080fa0000000600a400fa00e1ff07009f
:100c5000e5004700050009008058eb000000200077
:100c6000f10f2000600798007107980000f02f0036
:100c700001002000000f9800110f9800f00f2000d5
:100c800001002000200f9800310f980040c0b300f1
:100c9000004f780020c0b3001047980010c0b30088
:100ca00020479800f0c0b30030479800f0c0b30070
:100cb0004047980078014700e12c28000400090013
:100cc00031597800e209200002014700312d280047
:100cd00004000900315978007e00470013ff070027
:100ce00081c7b300608020004cfe070080c0eb008d
:100cf0000080200049fe070000202100a1072000fd
:100d00000e00070000202100a10720000b000700b3
:100d1000e10920008e8040006c004700010178004e
:100d20008000780000802000d2fe070000882300a9
:0c0d30001100200001000700efff370059
:020000040000fa
:100d3c00f03fb1000180b10006003500ee03090060
:100d4c0000000000403fb1000180b100fbff3d00fe
:100d5c001000b000203fb0000200350000800900f8
:080d6c00000000000000060079
:020000040000fa
:100d7400000800000c00000000000000000000005b
:020000040000fa
:020000040001f9
:0457f8000ff90000a5
:020000040000fa
:020000040001f9
:0457fc007f3f0000eb
:00000001FF
