:020000040000fa
:080000000002040000000000f2
:020000040000fa
:04000800c80200002a
:020000040000fa
:04000c00c802000026
:020000040000fa
:04001000c802000022
:020000040000fa
:04001400c80200001e
:020000040000fa
:04001800c80200001a
:020000040000fa
:04001c00c802000016
:020000040000fa
:04002000c802000012
:020000040000fa
:04002400c80200000e
:020000040000fa
:04002800c80200000a
:020000040000fa
:04002c00c802000006
:020000040000fa
:04003000c802000002
:020000040000fa
:04003400c8020000fe
:020000040000fa
:04003800c8020000fa
:020000040000fa
:04003c00c8020000f6
:020000040000fa
:04004000c8020000f2
:020000040000fa
:04004400c8020000ee
:020000040000fa
:04004800c8020000ea
:020000040000fa
:04004c00c8020000e6
:020000040000fa
:04005000c8020000e2
:020000040000fa
:04005400c8020000de
:020000040000fa
:04005800c8020000da
:020000040000fa
:04005c00c8020000d6
:020000040000fa
:04006000c8020000d2
:020000040000fa
:04006400c8020000ce
:020000040000fa
:04006800c8020000ca
:020000040000fa
:04006c00c8020000c6
:020000040000fa
:04007000c8020000c2
:020000040000fa
:04007400c8020000be
:020000040000fa
:04007800c8020000ba
:020000040000fa
:04007c00c8020000b6
:020000040000fa
:04008000c8020000b2
:020000040000fa
:04008400c8020000ae
:020000040000fa
:04008800c8020000aa
:020000040000fa
:04008c00c8020000a6
:020000040000fa
:04009000c8020000a2
:020000040000fa
:04009400c80200009e
:020000040000fa
:04009800c80200009a
:020000040000fa
:04009c00c802000096
:020000040000fa
:0400a000c802000092
:020000040000fa
:0400a400c80200008e
:020000040000fa
:0400a800c80200008a
:020000040000fa
:0400ac00c802000086
:020000040000fa
:0400b000c802000082
:020000040000fa
:0400b400c80200007e
:020000040000fa
:0400b800c80200007a
:020000040000fa
:0400bc00c802000076
:020000040000fa
:0400c000c802000072
:020000040000fa
:0400c400c80200006e
:020000040000fa
:0400c800c80200006a
:020000040000fa
:0400cc00c802000066
:020000040000fa
:0400d000c802000062
:020000040000fa
:0400d400c80200005e
:020000040000fa
:0400d800c80200005a
:020000040000fa
:0400dc00c802000056
:020000040000fa
:0400e000c802000052
:020000040000fa
:0400e400c80200004e
:020000040000fa
:0400e800c80200004a
:020000040000fa
:0400ec00c802000046
:020000040000fa
:0400f000c802000042
:020000040000fa
:0400f400c80200003e
:020000040000fa
:0400f800c80200003a
:020000040000fa
:0400fc00c802000036
:020000040000fa
:04010000c802000031
:020000040000fa
:04010400c80200002d
:020000040000fa
:04010800c802000029
:020000040000fa
:04010c00c802000025
:020000040000fa
:04011000c802000021
:020000040000fa
:04011400c80200001d
:020000040000fa
:04011800c802000019
:020000040000fa
:04011c00c802000015
:020000040000fa
:04012000c802000011
:020000040000fa
:04012400c80200000d
:020000040000fa
:04012800c802000009
:020000040000fa
:04012c00c802000005
:020000040000fa
:04013000c802000001
:020000040000fa
:04013400c8020000fd
:020000040000fa
:04013800c8020000f9
:020000040000fa
:04013c00c8020000f5
:020000040000fa
:04014000c8020000f1
:020000040000fa
:04014400c8020000ed
:020000040000fa
:04014800c8020000e9
:020000040000fa
:04020800c802000028
:020000040000fa
:04020c00c802000024
:020000040000fa
:04021000c802000020
:020000040000fa
:04021400c80200001c
:020000040000fa
:04021800c802000018
:020000040000fa
:04021c00c802000014
:020000040000fa
:04022000c802000010
:020000040000fa
:04022400c80200000c
:020000040000fa
:04022800c802000008
:020000040000fa
:04022c00c802000004
:020000040000fa
:04023000c802000000
:020000040000fa
:04023400c8020000fc
:020000040000fa
:04023800c8020000f8
:020000040000fa
:04023c00c8020000f4
:020000040000fa
:04024000c8020000f0
:020000040000fa
:04024400c8020000ec
:020000040000fa
:04024800c8020000e8
:020000040000fa
:04024c00c8020000e4
:020000040000fa
:04025000c8020000e0
:020000040000fa
:04025400c8020000dc
:020000040000fa
:04025800c8020000d8
:020000040000fa
:04025c00c8020000d4
:020000040000fa
:04026000c8020000d0
:020000040000fa
:04026400c8020000cc
:020000040000fa
:04026800c8020000c8
:020000040000fa
:04026c00c8020000c4
:020000040000fa
:04027000c8020000c0
:020000040000fa
:04027400c8020000bc
:020000040000fa
:04027800c8020000b8
:020000040000fa
:04027c00c8020000b4
:020000040000fa
:04028000c8020000b0
:020000040000fa
:04028400c8020000ac
:020000040000fa
:04028800c8020000a8
:020000040000fa
:04028c00c8020000a4
:020000040000fa
:04029000c8020000a0
:020000040000fa
:04029400c80200009c
:020000040000fa
:04029800c802000098
:020000040000fa
:04029c00c802000094
:020000040000fa
:0402a000c802000090
:020000040000fa
:0402a400c80200008c
:020000040000fa
:0402a800c802000088
:020000040000fa
:0402ac00c802000084
:020000040000fa
:0402b000c802000080
:020000040000fa
:0402b400c80200007c
:020000040000fa
:0402b800c802000078
:020000040000fa
:0402bc00c802000074
:020000040000fa
:0402c000c802000070
:020000040000fa
:0402c400c80200006c
:020000040000fa
:0402c800c802000068
:020000040000fa
:0402cc00c802000064
:020000040000fa
:0402d000c802000060
:020000040000fa
:0402d400c80200005c
:020000040000fa
:0402d800c802000058
:020000040000fa
:0402dc00c802000054
:020000040000fa
:0402e000c802000050
:020000040000fa
:0402e400c80200004c
:020000040000fa
:0402e800c802000048
:020000040000fa
:0402ec00c802000044
:020000040000fa
:0402f000c802000040
:020000040000fa
:0402f400c80200003c
:020000040000fa
:0402f800c802000038
:020000040000fa
:0402fc00c802000034
:020000040000fa
:04030000c80200002f
:020000040000fa
:04030400c80200002b
:020000040000fa
:04030800c802000027
:020000040000fa
:04030c00c802000023
:020000040000fa
:04031000c80200001f
:020000040000fa
:04031400c80200001b
:020000040000fa
:04031800c802000017
:020000040000fa
:04031c00c802000013
:020000040000fa
:04032000c80200000f
:020000040000fa
:04032400c80200000b
:020000040000fa
:04032800c802000007
:020000040000fa
:04032c00c802000003
:020000040000fa
:04033000c8020000ff
:020000040000fa
:04033400c8020000fb
:020000040000fa
:04033800c8020000f7
:020000040000fa
:04033c00c8020000f3
:020000040000fa
:04034000c8020000ef
:020000040000fa
:04034400c8020000eb
:020000040000fa
:04034800c8020000e7
:020000040000fa
:10040000cf8320000e7f22000e0188000000000034
:10041000000020000000e000020032000001200087
:1004200020028800140007005b0007000000e000c5
:1004300003003a0060602000010020000200370045
:100440000000200001002000810f70000100320038
:1004500014000700000020000000e000020032004d
:1004600000000200000000001c0502000000000067
:100470000040da000000fe004440a9000000200017
:100480000000e0000300320000002000a00188000e
:100490004440a800000006008a1f78008b1f7800e7
:1004a0000000060091018800800478000000eb0045
:1004b0001a003700e284440032a0b4009905ba0063
:1004c000e284440032a0b4009906ba00e2844400f9
:1004d00032a0b4000006eb00476fde00fd07b2005b
:1004e000636ce10003003a00ebff07000000eb0043
:1004f0000a003700606ce10004003a00005deb0088
:100500008b05e900fdff3e00040037006168e10053
:10051000010032000086eb000b00070019c7ba008b
:100520001905ba000e04e00003003a000a00e000da
:10053000e0ff3a0000000600fe07b2009e018800be
:100540008a047800f5ff3700395dba008b05e900b1
:100550000c003200295dba008b05e900080032006a
:100560000c00e00003003a00e284440032a0b40032
:10057000f5ff370019ddba008b05e900faff3a00f4
:100580008904e800e184440032a0b40000000600c1
:0c0590000040da000000fe000000050042
:020000040000fa
:10059c000a00fa006147980042079800ee4090006c
:1005ac00014f7800ce009000110798008040eb00be
:1005bc004147980062198000c1e3200082807000de
:1005cc0061198800ee4090008100fb0012002000b1
:1005dc008110dd000181ea0041168000810061007c
:1005ec00411688003e1878002e107800ae0090005e
:1005fc00210098000080fa00000006000400fa00b8
:10060c00000f780011079800601688000800090098
:10061c0000000000611688000080fa00000006004f
:10062c000400fa00000f780011079800601688008b
:10063c000100090000000000611688000080fa002b
:10064c00000006000e00fa0040079800214f9800a9
:10065c00324f9800434f98004e00900010407800a5
:10066c000000fb00110020000008dd0010079800be
:10067c00511680001e0090000100700020079800a9
:10068c001e0090008080ea00501680000080600000
:10069c00300798004e009000404090000004e000ad
:1006ac001b0032002e4890008080fb004e00900012
:1006bc00404090000080fb000088b90000007800ea
:1006cc004880de00204f98003e4890008080fb0060
:1006dc004e009000404090000080fb000088b90064
:1006ec00000078004880de00304f98004e489000a3
:1006fc008080fb004e009000404090000080fb008a
:10070c000088b900000078004880de00404f980057
:10071c00ff3ffc0070002000000f78001000370035
:10072c003e4890008080fb001e0078000088de00b0
:10073c0061006000004078000004e000040032001a
:10074c00be0090002e009000acff070003003700a5
:10075c00be0090002e009000b1ff07001e0fe900b4
:10076c001e0078000000e000edff3d00700020004e
:10077c00000f7800100037002e4890008080fb009e
:10078c001e0078000088de006100600000407800e8
:10079c000004e00004003200be0090002e00900027
:1007ac0096ff070003003700be0090002e0090005b
:1007bc009bff07001e0fe9001e0078000000e00000
:1007cc00edff3d0070002000000f78001000370096
:1007dc004e4890008080fb001e0078000088de00f0
:1007ec0061006000004078000004e000040032006a
:1007fc00be0090002e00900080ff07000300370021
:10080c00be0090002e00900085ff07001e0fe9002f
:10081c001e0078000000e000edff3d000000fc0031
:10082c000080fa00000006000400fa00000f7800b7
:10083c00214798001e007800ae409000414098007f
:10084c000080fa00000006000600fa00213a800041
:10085c00f08f2f0000806000203a880052002000aa
:10086c0051c0b3000e00780049ff07001e01be0006
:10087c008241880093418800ae019000a34188001a
:10088c005200200061c0b3000e00780040ff07004a
:10089c001e01be00b2418800c3418800ae01900029
:1008ac00d3418800000000000080fa000000060020
:1008bc000200fa0000c0eb00004f78001e80fb0025
:1008cc008000780000832000d7ff07008041eb00f8
:1008dc000041eb0080c0eb000083200059ff0700b3
:1008ec008041eb0000c1eb008040eb000083200056
:1008fc0054ff070080c1eb000041eb008040eb008f
:10090c00008320004fff07008041eb0000c1eb008b
:10091c0080c0eb00008320004aff07008041eb0001
:10092c000041eb008040eb006083200045ff070096
:10093c008041eb000041eb008040eb006083200025
:10094c0040ff07008041eb000041eb008040eb00d2
:10095c00608320003bff07008041eb000041eb006f
:10096c008040eb006083200036ff070000d027009a
:10097c0001002000940007008041eb000041eb00d7
:10098c008040eb00008320002eff07008041eb002d
:10099c000041eb008040eb000083200029ff0700a2
:1009ac008041eb000041eb008040eb000083200015
:1009bc0024ff07008041eb000041eb008040eb007e
:1009cc00008320001fff07008041eb0000c1eb00fb
:1009dc0080c0eb00608320001aff070080c1eb0091
:1009ec0000c1eb008040eb006083200015ff070086
:1009fc0080c1eb000041eb0080c0eb006083200065
:100a0c0010ff070080c1eb0000c1eb0080c0eb00c1
:100a1c00608320000bff070000d02700010020009e
:100a2c00690007001e4fe900a4ff37000000fa0020
:100a3c0085ff07009eff0700feff37000400fa0049
:100a4c00004f7800114798002247980033479800d0
:100a5c001e80fb001e419000038020006300b90043
:100a6c000000780000804100024878001e80fb00e6
:100a7c002e419000038020006300b9000000780034
:100a8c00008041000000e800024878001e80fb0056
:100a9c003e419000038020006300b9000000780004
:100aac00008041000080e800024878000080fa00d5
:100abc00000006000600fa00004f780012079800ac
:100acc00230798001e82fb001e009000ae009000d1
:100adc004088de00cf80de000041780003802000db
:100aec006320b900000078000080410002487800c3
:100afc001e82fb001e009000ae0090004809dd0035
:100b0c004800de0000007100c888de00004178005b
:100b1c00038020006320b9000000780000804100b1
:100b2c000000e800024878001e80fb009e00900048
:100b3c0001417800038020006300b90000007800b8
:100b4c00008041000080e800024878000080fa0034
:100b5c00000006000200fa00004f78001e80fb0027
:100b6c006300b9000000780001802000614078002b
:100b7c000080fa00000006000200fa00004f780026
:100b8c001e80fb006300b900000078000000e80044
:100b9c0001802000614078000080fa00000006000f
:100bac000200fa00004f78001e80fb006300b900c1
:100bbc00000078000080e80001802000614078008f
:080bcc000080fa0000000600a1
:020000040000fa
:100bd400f03fb1000180b10006003500ee030900ca
:100be40000000000403fb1000180b100fbff3d0068
:100bf4001000b000203fb000020035000080090062
:080c04000000000000000600e2
:020000040000fa
:100c0c00300800000c00000000000000000800008c
:0c0c1c003000000000000000000000009c
:020000040000fa
:020000040001f9
:0457f8000ff90000a5
:020000040000fa
:020000040001f9
:0457fc007f3f0000eb
:00000001FF
